{
	"contracts/DIOVoting.sol": {
		"DIOVoting": {
			"abi": [
				{
					"inputs": [
						{
							"internalType": "string[]",
							"name": "candidateNames",
							"type": "string[]"
						}
					],
					"stateMutability": "nonpayable",
					"type": "constructor"
				},
				{
					"inputs": [
						{
							"internalType": "uint256",
							"name": "",
							"type": "uint256"
						}
					],
					"name": "candidateList",
					"outputs": [
						{
							"internalType": "string",
							"name": "",
							"type": "string"
						}
					],
					"stateMutability": "view",
					"type": "function"
				},
				{
					"inputs": [
						{
							"internalType": "string",
							"name": "candidate",
							"type": "string"
						}
					],
					"name": "totalVotesFor",
					"outputs": [
						{
							"internalType": "uint256",
							"name": "",
							"type": "uint256"
						}
					],
					"stateMutability": "view",
					"type": "function"
				},
				{
					"inputs": [
						{
							"internalType": "string",
							"name": "candidate",
							"type": "string"
						}
					],
					"name": "validCandidate",
					"outputs": [
						{
							"internalType": "bool",
							"name": "",
							"type": "bool"
						}
					],
					"stateMutability": "view",
					"type": "function"
				},
				{
					"inputs": [
						{
							"internalType": "string",
							"name": "candidate",
							"type": "string"
						}
					],
					"name": "voteForCandidate",
					"outputs": [],
					"stateMutability": "nonpayable",
					"type": "function"
				},
				{
					"inputs": [
						{
							"internalType": "string",
							"name": "",
							"type": "string"
						}
					],
					"name": "votesReceived",
					"outputs": [
						{
							"internalType": "uint256",
							"name": "",
							"type": "uint256"
						}
					],
					"stateMutability": "view",
					"type": "function"
				}
			],
			"devdoc": {
				"kind": "dev",
				"methods": {},
				"version": 1
			},
			"evm": {
				"assembly": "    /* \"contracts/DIOVoting.sol\":74:968  contract DIOVoting {... */\n  mstore(0x40, 0x80)\n    /* \"contracts/DIOVoting.sol\":193:287  constructor (string[] memory candidateNames) {... */\n  callvalue\n  dup1\n  iszero\n  tag_1\n  jumpi\n  0x00\n  dup1\n  revert\ntag_1:\n  pop\n  mload(0x40)\n  sub(codesize, bytecodeSize)\n  dup1\n  bytecodeSize\n  dup4\n  codecopy\n  dup2\n  dup2\n  add\n  0x40\n  mstore\n  dup2\n  add\n  swap1\n  tag_2\n  swap2\n  swap1\n  tag_3\n  jump\t// in\ntag_2:\n    /* \"contracts/DIOVoting.sol\":265:279  candidateNames */\n  dup1\n    /* \"contracts/DIOVoting.sol\":249:262  candidateList */\n  0x01\n    /* \"contracts/DIOVoting.sol\":249:279  candidateList = candidateNames */\n  swap1\n  dup1\n  mload\n  swap1\n  0x20\n  add\n  swap1\n  tag_6\n  swap3\n  swap2\n  swap1\n  tag_7\n  jump\t// in\ntag_6:\n  pop\n    /* \"contracts/DIOVoting.sol\":193:287  constructor (string[] memory candidateNames) {... */\n  pop\n    /* \"contracts/DIOVoting.sol\":74:968  contract DIOVoting {... */\n  jump(tag_8)\ntag_7:\n  dup3\n  dup1\n  sload\n  dup3\n  dup3\n  sstore\n  swap1\n  0x00\n  mstore\n  keccak256(0x00, 0x20)\n  swap1\n  dup2\n  add\n  swap3\n  dup3\n  iszero\n  tag_9\n  jumpi\n  swap2\n  0x20\n  mul\n  dup3\n  add\ntag_10:\n  dup3\n  dup2\n  gt\n  iszero\n  tag_11\n  jumpi\n  dup3\n  mload\n  dup3\n  swap1\n  dup2\n  tag_12\n  swap2\n  swap1\n  tag_13\n  jump\t// in\ntag_12:\n  pop\n  swap2\n  0x20\n  add\n  swap2\n  swap1\n  0x01\n  add\n  swap1\n  jump(tag_10)\ntag_11:\ntag_9:\n  pop\n  swap1\n  pop\n  tag_14\n  swap2\n  swap1\n  tag_15\n  jump\t// in\ntag_14:\n  pop\n  swap1\n  jump\t// out\ntag_15:\ntag_16:\n  dup1\n  dup3\n  gt\n  iszero\n  tag_17\n  jumpi\n  0x00\n  dup2\n  dup2\n  tag_18\n  swap2\n  swap1\n  tag_19\n  jump\t// in\ntag_18:\n  pop\n  0x01\n  add\n  jump(tag_16)\ntag_17:\n  pop\n  swap1\n  jump\t// out\ntag_19:\n  pop\n  dup1\n  sload\n  tag_20\n  swap1\n  tag_21\n  jump\t// in\ntag_20:\n  0x00\n  dup3\n  sstore\n  dup1\n  0x1f\n  lt\n  tag_23\n  jumpi\n  pop\n  jump(tag_22)\ntag_23:\n  0x1f\n  add\n  0x20\n  swap1\n  div\n  swap1\n  0x00\n  mstore\n  keccak256(0x00, 0x20)\n  swap1\n  dup2\n  add\n  swap1\n  tag_24\n  swap2\n  swap1\n  tag_25\n  jump\t// in\ntag_24:\ntag_22:\n  pop\n  jump\t// out\ntag_25:\ntag_26:\n  dup1\n  dup3\n  gt\n  iszero\n  tag_27\n  jumpi\n  0x00\n  dup2\n  0x00\n  swap1\n  sstore\n  pop\n  0x01\n  add\n  jump(tag_26)\ntag_27:\n  pop\n  swap1\n  jump\t// out\n    /* \"#utility.yul\":7:82   */\ntag_28:\n    /* \"#utility.yul\":40:46   */\n  0x00\n    /* \"#utility.yul\":73:75   */\n  0x40\n    /* \"#utility.yul\":67:76   */\n  mload\n    /* \"#utility.yul\":57:76   */\n  swap1\n  pop\n    /* \"#utility.yul\":7:82   */\n  swap1\n  jump\t// out\n    /* \"#utility.yul\":88:205   */\ntag_29:\n    /* \"#utility.yul\":197:198   */\n  0x00\n    /* \"#utility.yul\":194:195   */\n  dup1\n    /* \"#utility.yul\":187:199   */\n  revert\n    /* \"#utility.yul\":211:328   */\ntag_30:\n    /* \"#utility.yul\":320:321   */\n  0x00\n    /* \"#utility.yul\":317:318   */\n  dup1\n    /* \"#utility.yul\":310:322   */\n  revert\n    /* \"#utility.yul\":334:451   */\ntag_31:\n    /* \"#utility.yul\":443:444   */\n  0x00\n    /* \"#utility.yul\":440:441   */\n  dup1\n    /* \"#utility.yul\":433:445   */\n  revert\n    /* \"#utility.yul\":457:559   */\ntag_32:\n    /* \"#utility.yul\":498:504   */\n  0x00\n    /* \"#utility.yul\":549:551   */\n  0x1f\n    /* \"#utility.yul\":545:552   */\n  not\n    /* \"#utility.yul\":540:542   */\n  0x1f\n    /* \"#utility.yul\":533:538   */\n  dup4\n    /* \"#utility.yul\":529:543   */\n  add\n    /* \"#utility.yul\":525:553   */\n  and\n    /* \"#utility.yul\":515:553   */\n  swap1\n  pop\n    /* \"#utility.yul\":457:559   */\n  swap2\n  swap1\n  pop\n  jump\t// out\n    /* \"#utility.yul\":565:745   */\ntag_33:\n    /* \"#utility.yul\":613:690   */\n  0x4e487b7100000000000000000000000000000000000000000000000000000000\n    /* \"#utility.yul\":610:611   */\n  0x00\n    /* \"#utility.yul\":603:691   */\n  mstore\n    /* \"#utility.yul\":710:714   */\n  0x41\n    /* \"#utility.yul\":707:708   */\n  0x04\n    /* \"#utility.yul\":700:715   */\n  mstore\n    /* \"#utility.yul\":734:738   */\n  0x24\n    /* \"#utility.yul\":731:732   */\n  0x00\n    /* \"#utility.yul\":724:739   */\n  revert\n    /* \"#utility.yul\":751:1032   */\ntag_34:\n    /* \"#utility.yul\":834:861   */\n  tag_71\n    /* \"#utility.yul\":856:860   */\n  dup3\n    /* \"#utility.yul\":834:861   */\n  tag_32\n  jump\t// in\ntag_71:\n    /* \"#utility.yul\":826:832   */\n  dup2\n    /* \"#utility.yul\":822:862   */\n  add\n    /* \"#utility.yul\":964:970   */\n  dup2\n    /* \"#utility.yul\":952:962   */\n  dup2\n    /* \"#utility.yul\":949:971   */\n  lt\n    /* \"#utility.yul\":928:946   */\n  0xffffffffffffffff\n    /* \"#utility.yul\":916:926   */\n  dup3\n    /* \"#utility.yul\":913:947   */\n  gt\n    /* \"#utility.yul\":910:972   */\n  or\n    /* \"#utility.yul\":907:995   */\n  iszero\n  tag_72\n  jumpi\n    /* \"#utility.yul\":975:993   */\n  tag_73\n  tag_33\n  jump\t// in\ntag_73:\n    /* \"#utility.yul\":907:995   */\ntag_72:\n    /* \"#utility.yul\":1015:1025   */\n  dup1\n    /* \"#utility.yul\":1011:1013   */\n  0x40\n    /* \"#utility.yul\":1004:1026   */\n  mstore\n    /* \"#utility.yul\":794:1032   */\n  pop\n    /* \"#utility.yul\":751:1032   */\n  pop\n  pop\n  jump\t// out\n    /* \"#utility.yul\":1038:1167   */\ntag_35:\n    /* \"#utility.yul\":1072:1078   */\n  0x00\n    /* \"#utility.yul\":1099:1119   */\n  tag_75\n  tag_28\n  jump\t// in\ntag_75:\n    /* \"#utility.yul\":1089:1119   */\n  swap1\n  pop\n    /* \"#utility.yul\":1128:1161   */\n  tag_76\n    /* \"#utility.yul\":1156:1160   */\n  dup3\n    /* \"#utility.yul\":1148:1154   */\n  dup3\n    /* \"#utility.yul\":1128:1161   */\n  tag_34\n  jump\t// in\ntag_76:\n    /* \"#utility.yul\":1038:1167   */\n  swap2\n  swap1\n  pop\n  jump\t// out\n    /* \"#utility.yul\":1173:1494   */\ntag_36:\n    /* \"#utility.yul\":1260:1264   */\n  0x00\n    /* \"#utility.yul\":1350:1368   */\n  0xffffffffffffffff\n    /* \"#utility.yul\":1342:1348   */\n  dup3\n    /* \"#utility.yul\":1339:1369   */\n  gt\n    /* \"#utility.yul\":1336:1392   */\n  iszero\n  tag_78\n  jumpi\n    /* \"#utility.yul\":1372:1390   */\n  tag_79\n  tag_33\n  jump\t// in\ntag_79:\n    /* \"#utility.yul\":1336:1392   */\ntag_78:\n    /* \"#utility.yul\":1422:1426   */\n  0x20\n    /* \"#utility.yul\":1414:1420   */\n  dup3\n    /* \"#utility.yul\":1410:1427   */\n  mul\n    /* \"#utility.yul\":1402:1427   */\n  swap1\n  pop\n    /* \"#utility.yul\":1482:1486   */\n  0x20\n    /* \"#utility.yul\":1476:1480   */\n  dup2\n    /* \"#utility.yul\":1472:1487   */\n  add\n    /* \"#utility.yul\":1464:1487   */\n  swap1\n  pop\n    /* \"#utility.yul\":1173:1494   */\n  swap2\n  swap1\n  pop\n  jump\t// out\n    /* \"#utility.yul\":1500:1617   */\ntag_37:\n    /* \"#utility.yul\":1609:1610   */\n  0x00\n    /* \"#utility.yul\":1606:1607   */\n  dup1\n    /* \"#utility.yul\":1599:1611   */\n  revert\n    /* \"#utility.yul\":1623:1740   */\ntag_38:\n    /* \"#utility.yul\":1732:1733   */\n  0x00\n    /* \"#utility.yul\":1729:1730   */\n  dup1\n    /* \"#utility.yul\":1722:1734   */\n  revert\n    /* \"#utility.yul\":1746:2054   */\ntag_39:\n    /* \"#utility.yul\":1808:1812   */\n  0x00\n    /* \"#utility.yul\":1898:1916   */\n  0xffffffffffffffff\n    /* \"#utility.yul\":1890:1896   */\n  dup3\n    /* \"#utility.yul\":1887:1917   */\n  gt\n    /* \"#utility.yul\":1884:1940   */\n  iszero\n  tag_83\n  jumpi\n    /* \"#utility.yul\":1920:1938   */\n  tag_84\n  tag_33\n  jump\t// in\ntag_84:\n    /* \"#utility.yul\":1884:1940   */\ntag_83:\n    /* \"#utility.yul\":1958:1987   */\n  tag_85\n    /* \"#utility.yul\":1980:1986   */\n  dup3\n    /* \"#utility.yul\":1958:1987   */\n  tag_32\n  jump\t// in\ntag_85:\n    /* \"#utility.yul\":1950:1987   */\n  swap1\n  pop\n    /* \"#utility.yul\":2042:2046   */\n  0x20\n    /* \"#utility.yul\":2036:2040   */\n  dup2\n    /* \"#utility.yul\":2032:2047   */\n  add\n    /* \"#utility.yul\":2024:2047   */\n  swap1\n  pop\n    /* \"#utility.yul\":1746:2054   */\n  swap2\n  swap1\n  pop\n  jump\t// out\n    /* \"#utility.yul\":2060:2308   */\ntag_40:\n    /* \"#utility.yul\":2142:2143   */\n  0x00\n    /* \"#utility.yul\":2152:2265   */\ntag_87:\n    /* \"#utility.yul\":2166:2172   */\n  dup4\n    /* \"#utility.yul\":2163:2164   */\n  dup2\n    /* \"#utility.yul\":2160:2173   */\n  lt\n    /* \"#utility.yul\":2152:2265   */\n  iszero\n  tag_89\n  jumpi\n    /* \"#utility.yul\":2251:2252   */\n  dup1\n    /* \"#utility.yul\":2246:2249   */\n  dup3\n    /* \"#utility.yul\":2242:2253   */\n  add\n    /* \"#utility.yul\":2236:2254   */\n  mload\n    /* \"#utility.yul\":2232:2233   */\n  dup2\n    /* \"#utility.yul\":2227:2230   */\n  dup5\n    /* \"#utility.yul\":2223:2234   */\n  add\n    /* \"#utility.yul\":2216:2255   */\n  mstore\n    /* \"#utility.yul\":2188:2190   */\n  0x20\n    /* \"#utility.yul\":2185:2186   */\n  dup2\n    /* \"#utility.yul\":2181:2191   */\n  add\n    /* \"#utility.yul\":2176:2191   */\n  swap1\n  pop\n    /* \"#utility.yul\":2152:2265   */\n  jump(tag_87)\ntag_89:\n    /* \"#utility.yul\":2299:2300   */\n  0x00\n    /* \"#utility.yul\":2290:2296   */\n  dup5\n    /* \"#utility.yul\":2285:2288   */\n  dup5\n    /* \"#utility.yul\":2281:2297   */\n  add\n    /* \"#utility.yul\":2274:2301   */\n  mstore\n    /* \"#utility.yul\":2122:2308   */\n  pop\n    /* \"#utility.yul\":2060:2308   */\n  pop\n  pop\n  pop\n  jump\t// out\n    /* \"#utility.yul\":2314:2748   */\ntag_41:\n    /* \"#utility.yul\":2403:2408   */\n  0x00\n    /* \"#utility.yul\":2428:2494   */\n  tag_91\n    /* \"#utility.yul\":2444:2493   */\n  tag_92\n    /* \"#utility.yul\":2486:2492   */\n  dup5\n    /* \"#utility.yul\":2444:2493   */\n  tag_39\n  jump\t// in\ntag_92:\n    /* \"#utility.yul\":2428:2494   */\n  tag_35\n  jump\t// in\ntag_91:\n    /* \"#utility.yul\":2419:2494   */\n  swap1\n  pop\n    /* \"#utility.yul\":2517:2523   */\n  dup3\n    /* \"#utility.yul\":2510:2515   */\n  dup2\n    /* \"#utility.yul\":2503:2524   */\n  mstore\n    /* \"#utility.yul\":2555:2559   */\n  0x20\n    /* \"#utility.yul\":2548:2553   */\n  dup2\n    /* \"#utility.yul\":2544:2560   */\n  add\n    /* \"#utility.yul\":2593:2596   */\n  dup5\n    /* \"#utility.yul\":2584:2590   */\n  dup5\n    /* \"#utility.yul\":2579:2582   */\n  dup5\n    /* \"#utility.yul\":2575:2591   */\n  add\n    /* \"#utility.yul\":2572:2597   */\n  gt\n    /* \"#utility.yul\":2569:2681   */\n  iszero\n  tag_93\n  jumpi\n    /* \"#utility.yul\":2600:2679   */\n  tag_94\n  tag_38\n  jump\t// in\ntag_94:\n    /* \"#utility.yul\":2569:2681   */\ntag_93:\n    /* \"#utility.yul\":2690:2742   */\n  tag_95\n    /* \"#utility.yul\":2735:2741   */\n  dup5\n    /* \"#utility.yul\":2730:2733   */\n  dup3\n    /* \"#utility.yul\":2725:2728   */\n  dup6\n    /* \"#utility.yul\":2690:2742   */\n  tag_40\n  jump\t// in\ntag_95:\n    /* \"#utility.yul\":2409:2748   */\n  pop\n    /* \"#utility.yul\":2314:2748   */\n  swap4\n  swap3\n  pop\n  pop\n  pop\n  jump\t// out\n    /* \"#utility.yul\":2768:3123   */\ntag_42:\n    /* \"#utility.yul\":2835:2840   */\n  0x00\n    /* \"#utility.yul\":2884:2887   */\n  dup3\n    /* \"#utility.yul\":2877:2881   */\n  0x1f\n    /* \"#utility.yul\":2869:2875   */\n  dup4\n    /* \"#utility.yul\":2865:2882   */\n  add\n    /* \"#utility.yul\":2861:2888   */\n  slt\n    /* \"#utility.yul\":2851:2973   */\n  tag_97\n  jumpi\n    /* \"#utility.yul\":2892:2971   */\n  tag_98\n  tag_31\n  jump\t// in\ntag_98:\n    /* \"#utility.yul\":2851:2973   */\ntag_97:\n    /* \"#utility.yul\":3002:3008   */\n  dup2\n    /* \"#utility.yul\":2996:3009   */\n  mload\n    /* \"#utility.yul\":3027:3117   */\n  tag_99\n    /* \"#utility.yul\":3113:3116   */\n  dup5\n    /* \"#utility.yul\":3105:3111   */\n  dup3\n    /* \"#utility.yul\":3098:3102   */\n  0x20\n    /* \"#utility.yul\":3090:3096   */\n  dup7\n    /* \"#utility.yul\":3086:3103   */\n  add\n    /* \"#utility.yul\":3027:3117   */\n  tag_41\n  jump\t// in\ntag_99:\n    /* \"#utility.yul\":3018:3117   */\n  swap2\n  pop\n    /* \"#utility.yul\":2841:3123   */\n  pop\n    /* \"#utility.yul\":2768:3123   */\n  swap3\n  swap2\n  pop\n  pop\n  jump\t// out\n    /* \"#utility.yul\":3145:4105   */\ntag_43:\n    /* \"#utility.yul\":3262:3267   */\n  0x00\n    /* \"#utility.yul\":3287:3378   */\n  tag_101\n    /* \"#utility.yul\":3303:3377   */\n  tag_102\n    /* \"#utility.yul\":3370:3376   */\n  dup5\n    /* \"#utility.yul\":3303:3377   */\n  tag_36\n  jump\t// in\ntag_102:\n    /* \"#utility.yul\":3287:3378   */\n  tag_35\n  jump\t// in\ntag_101:\n    /* \"#utility.yul\":3278:3378   */\n  swap1\n  pop\n    /* \"#utility.yul\":3398:3403   */\n  dup1\n    /* \"#utility.yul\":3427:3433   */\n  dup4\n    /* \"#utility.yul\":3420:3425   */\n  dup3\n    /* \"#utility.yul\":3413:3434   */\n  mstore\n    /* \"#utility.yul\":3461:3465   */\n  0x20\n    /* \"#utility.yul\":3454:3459   */\n  dup3\n    /* \"#utility.yul\":3450:3466   */\n  add\n    /* \"#utility.yul\":3443:3466   */\n  swap1\n  pop\n    /* \"#utility.yul\":3514:3518   */\n  0x20\n    /* \"#utility.yul\":3506:3512   */\n  dup5\n    /* \"#utility.yul\":3502:3519   */\n  mul\n    /* \"#utility.yul\":3494:3500   */\n  dup4\n    /* \"#utility.yul\":3490:3520   */\n  add\n    /* \"#utility.yul\":3543:3546   */\n  dup6\n    /* \"#utility.yul\":3535:3541   */\n  dup2\n    /* \"#utility.yul\":3532:3547   */\n  gt\n    /* \"#utility.yul\":3529:3651   */\n  iszero\n  tag_103\n  jumpi\n    /* \"#utility.yul\":3562:3641   */\n  tag_104\n  tag_37\n  jump\t// in\ntag_104:\n    /* \"#utility.yul\":3529:3651   */\ntag_103:\n    /* \"#utility.yul\":3677:3683   */\n  dup4\n    /* \"#utility.yul\":3660:4099   */\ntag_105:\n    /* \"#utility.yul\":3694:3700   */\n  dup2\n    /* \"#utility.yul\":3689:3692   */\n  dup2\n    /* \"#utility.yul\":3686:3701   */\n  lt\n    /* \"#utility.yul\":3660:4099   */\n  iszero\n  tag_107\n  jumpi\n    /* \"#utility.yul\":3776:3779   */\n  dup1\n    /* \"#utility.yul\":3770:3780   */\n  mload\n    /* \"#utility.yul\":3812:3830   */\n  0xffffffffffffffff\n    /* \"#utility.yul\":3799:3810   */\n  dup2\n    /* \"#utility.yul\":3796:3831   */\n  gt\n    /* \"#utility.yul\":3793:3915   */\n  iszero\n  tag_108\n  jumpi\n    /* \"#utility.yul\":3834:3913   */\n  tag_109\n  tag_31\n  jump\t// in\ntag_109:\n    /* \"#utility.yul\":3793:3915   */\ntag_108:\n    /* \"#utility.yul\":3958:3969   */\n  dup1\n    /* \"#utility.yul\":3950:3956   */\n  dup7\n    /* \"#utility.yul\":3946:3970   */\n  add\n    /* \"#utility.yul\":3996:4054   */\n  tag_110\n    /* \"#utility.yul\":4050:4053   */\n  dup10\n    /* \"#utility.yul\":4038:4048   */\n  dup3\n    /* \"#utility.yul\":3996:4054   */\n  tag_42\n  jump\t// in\ntag_110:\n    /* \"#utility.yul\":3991:3994   */\n  dup6\n    /* \"#utility.yul\":3984:4055   */\n  mstore\n    /* \"#utility.yul\":4084:4088   */\n  0x20\n    /* \"#utility.yul\":4079:4082   */\n  dup6\n    /* \"#utility.yul\":4075:4089   */\n  add\n    /* \"#utility.yul\":4068:4089   */\n  swap5\n  pop\n    /* \"#utility.yul\":3736:4099   */\n  pop\n  pop\n    /* \"#utility.yul\":3720:3724   */\n  0x20\n    /* \"#utility.yul\":3715:3718   */\n  dup2\n    /* \"#utility.yul\":3711:3725   */\n  add\n    /* \"#utility.yul\":3704:3725   */\n  swap1\n  pop\n    /* \"#utility.yul\":3660:4099   */\n  jump(tag_105)\ntag_107:\n    /* \"#utility.yul\":3664:3685   */\n  pop\n    /* \"#utility.yul\":3268:4105   */\n  pop\n  pop\n    /* \"#utility.yul\":3145:4105   */\n  swap4\n  swap3\n  pop\n  pop\n  pop\n  jump\t// out\n    /* \"#utility.yul\":4127:4532   */\ntag_44:\n    /* \"#utility.yul\":4219:4224   */\n  0x00\n    /* \"#utility.yul\":4268:4271   */\n  dup3\n    /* \"#utility.yul\":4261:4265   */\n  0x1f\n    /* \"#utility.yul\":4253:4259   */\n  dup4\n    /* \"#utility.yul\":4249:4266   */\n  add\n    /* \"#utility.yul\":4245:4272   */\n  slt\n    /* \"#utility.yul\":4235:4357   */\n  tag_112\n  jumpi\n    /* \"#utility.yul\":4276:4355   */\n  tag_113\n  tag_31\n  jump\t// in\ntag_113:\n    /* \"#utility.yul\":4235:4357   */\ntag_112:\n    /* \"#utility.yul\":4386:4392   */\n  dup2\n    /* \"#utility.yul\":4380:4393   */\n  mload\n    /* \"#utility.yul\":4411:4526   */\n  tag_114\n    /* \"#utility.yul\":4522:4525   */\n  dup5\n    /* \"#utility.yul\":4514:4520   */\n  dup3\n    /* \"#utility.yul\":4507:4511   */\n  0x20\n    /* \"#utility.yul\":4499:4505   */\n  dup7\n    /* \"#utility.yul\":4495:4512   */\n  add\n    /* \"#utility.yul\":4411:4526   */\n  tag_43\n  jump\t// in\ntag_114:\n    /* \"#utility.yul\":4402:4526   */\n  swap2\n  pop\n    /* \"#utility.yul\":4225:4532   */\n  pop\n    /* \"#utility.yul\":4127:4532   */\n  swap3\n  swap2\n  pop\n  pop\n  jump\t// out\n    /* \"#utility.yul\":4538:5112   */\ntag_3:\n    /* \"#utility.yul\":4643:4649   */\n  0x00\n    /* \"#utility.yul\":4692:4694   */\n  0x20\n    /* \"#utility.yul\":4680:4689   */\n  dup3\n    /* \"#utility.yul\":4671:4678   */\n  dup5\n    /* \"#utility.yul\":4667:4690   */\n  sub\n    /* \"#utility.yul\":4663:4695   */\n  slt\n    /* \"#utility.yul\":4660:4779   */\n  iszero\n  tag_116\n  jumpi\n    /* \"#utility.yul\":4698:4777   */\n  tag_117\n  tag_29\n  jump\t// in\ntag_117:\n    /* \"#utility.yul\":4660:4779   */\ntag_116:\n    /* \"#utility.yul\":4839:4840   */\n  0x00\n    /* \"#utility.yul\":4828:4837   */\n  dup3\n    /* \"#utility.yul\":4824:4841   */\n  add\n    /* \"#utility.yul\":4818:4842   */\n  mload\n    /* \"#utility.yul\":4869:4887   */\n  0xffffffffffffffff\n    /* \"#utility.yul\":4861:4867   */\n  dup2\n    /* \"#utility.yul\":4858:4888   */\n  gt\n    /* \"#utility.yul\":4855:4972   */\n  iszero\n  tag_118\n  jumpi\n    /* \"#utility.yul\":4891:4970   */\n  tag_119\n  tag_30\n  jump\t// in\ntag_119:\n    /* \"#utility.yul\":4855:4972   */\ntag_118:\n    /* \"#utility.yul\":4996:5095   */\n  tag_120\n    /* \"#utility.yul\":5087:5094   */\n  dup5\n    /* \"#utility.yul\":5078:5084   */\n  dup3\n    /* \"#utility.yul\":5067:5076   */\n  dup6\n    /* \"#utility.yul\":5063:5085   */\n  add\n    /* \"#utility.yul\":4996:5095   */\n  tag_44\n  jump\t// in\ntag_120:\n    /* \"#utility.yul\":4986:5095   */\n  swap2\n  pop\n    /* \"#utility.yul\":4789:5105   */\n  pop\n    /* \"#utility.yul\":4538:5112   */\n  swap3\n  swap2\n  pop\n  pop\n  jump\t// out\n    /* \"#utility.yul\":5118:5217   */\ntag_45:\n    /* \"#utility.yul\":5170:5176   */\n  0x00\n    /* \"#utility.yul\":5204:5209   */\n  dup2\n    /* \"#utility.yul\":5198:5210   */\n  mload\n    /* \"#utility.yul\":5188:5210   */\n  swap1\n  pop\n    /* \"#utility.yul\":5118:5217   */\n  swap2\n  swap1\n  pop\n  jump\t// out\n    /* \"#utility.yul\":5223:5403   */\ntag_46:\n    /* \"#utility.yul\":5271:5348   */\n  0x4e487b7100000000000000000000000000000000000000000000000000000000\n    /* \"#utility.yul\":5268:5269   */\n  0x00\n    /* \"#utility.yul\":5261:5349   */\n  mstore\n    /* \"#utility.yul\":5368:5372   */\n  0x22\n    /* \"#utility.yul\":5365:5366   */\n  0x04\n    /* \"#utility.yul\":5358:5373   */\n  mstore\n    /* \"#utility.yul\":5392:5396   */\n  0x24\n    /* \"#utility.yul\":5389:5390   */\n  0x00\n    /* \"#utility.yul\":5382:5397   */\n  revert\n    /* \"#utility.yul\":5409:5729   */\ntag_21:\n    /* \"#utility.yul\":5453:5459   */\n  0x00\n    /* \"#utility.yul\":5490:5491   */\n  0x02\n    /* \"#utility.yul\":5484:5488   */\n  dup3\n    /* \"#utility.yul\":5480:5492   */\n  div\n    /* \"#utility.yul\":5470:5492   */\n  swap1\n  pop\n    /* \"#utility.yul\":5537:5538   */\n  0x01\n    /* \"#utility.yul\":5531:5535   */\n  dup3\n    /* \"#utility.yul\":5527:5539   */\n  and\n    /* \"#utility.yul\":5558:5576   */\n  dup1\n    /* \"#utility.yul\":5548:5629   */\n  tag_124\n  jumpi\n    /* \"#utility.yul\":5614:5618   */\n  0x7f\n    /* \"#utility.yul\":5606:5612   */\n  dup3\n    /* \"#utility.yul\":5602:5619   */\n  and\n    /* \"#utility.yul\":5592:5619   */\n  swap2\n  pop\n    /* \"#utility.yul\":5548:5629   */\ntag_124:\n    /* \"#utility.yul\":5676:5678   */\n  0x20\n    /* \"#utility.yul\":5668:5674   */\n  dup3\n    /* \"#utility.yul\":5665:5679   */\n  lt\n    /* \"#utility.yul\":5645:5663   */\n  dup2\n    /* \"#utility.yul\":5642:5680   */\n  sub\n    /* \"#utility.yul\":5639:5723   */\n  tag_125\n  jumpi\n    /* \"#utility.yul\":5695:5713   */\n  tag_126\n  tag_46\n  jump\t// in\ntag_126:\n    /* \"#utility.yul\":5639:5723   */\ntag_125:\n    /* \"#utility.yul\":5460:5729   */\n  pop\n    /* \"#utility.yul\":5409:5729   */\n  swap2\n  swap1\n  pop\n  jump\t// out\n    /* \"#utility.yul\":5735:5876   */\ntag_47:\n    /* \"#utility.yul\":5784:5788   */\n  0x00\n    /* \"#utility.yul\":5807:5810   */\n  dup2\n    /* \"#utility.yul\":5799:5810   */\n  swap1\n  pop\n    /* \"#utility.yul\":5830:5833   */\n  dup2\n    /* \"#utility.yul\":5827:5828   */\n  0x00\n    /* \"#utility.yul\":5820:5834   */\n  mstore\n    /* \"#utility.yul\":5864:5868   */\n  0x20\n    /* \"#utility.yul\":5861:5862   */\n  0x00\n    /* \"#utility.yul\":5851:5869   */\n  keccak256\n    /* \"#utility.yul\":5843:5869   */\n  swap1\n  pop\n    /* \"#utility.yul\":5735:5876   */\n  swap2\n  swap1\n  pop\n  jump\t// out\n    /* \"#utility.yul\":5882:5975   */\ntag_48:\n    /* \"#utility.yul\":5919:5925   */\n  0x00\n    /* \"#utility.yul\":5966:5968   */\n  0x20\n    /* \"#utility.yul\":5961:5963   */\n  0x1f\n    /* \"#utility.yul\":5954:5959   */\n  dup4\n    /* \"#utility.yul\":5950:5964   */\n  add\n    /* \"#utility.yul\":5946:5969   */\n  div\n    /* \"#utility.yul\":5936:5969   */\n  swap1\n  pop\n    /* \"#utility.yul\":5882:5975   */\n  swap2\n  swap1\n  pop\n  jump\t// out\n    /* \"#utility.yul\":5981:6088   */\ntag_49:\n    /* \"#utility.yul\":6025:6033   */\n  0x00\n    /* \"#utility.yul\":6075:6080   */\n  dup3\n    /* \"#utility.yul\":6069:6073   */\n  dup3\n    /* \"#utility.yul\":6065:6081   */\n  shl\n    /* \"#utility.yul\":6044:6081   */\n  swap1\n  pop\n    /* \"#utility.yul\":5981:6088   */\n  swap3\n  swap2\n  pop\n  pop\n  jump\t// out\n    /* \"#utility.yul\":6094:6487   */\ntag_50:\n    /* \"#utility.yul\":6163:6169   */\n  0x00\n    /* \"#utility.yul\":6213:6214   */\n  0x08\n    /* \"#utility.yul\":6201:6211   */\n  dup4\n    /* \"#utility.yul\":6197:6215   */\n  mul\n    /* \"#utility.yul\":6236:6333   */\n  tag_131\n    /* \"#utility.yul\":6266:6332   */\n  0xffffffffffffffffffffffffffffffffffffffffffffffffffffffffffffffff\n    /* \"#utility.yul\":6255:6264   */\n  dup3\n    /* \"#utility.yul\":6236:6333   */\n  tag_49\n  jump\t// in\ntag_131:\n    /* \"#utility.yul\":6354:6393   */\n  tag_132\n    /* \"#utility.yul\":6384:6392   */\n  dup7\n    /* \"#utility.yul\":6373:6382   */\n  dup4\n    /* \"#utility.yul\":6354:6393   */\n  tag_49\n  jump\t// in\ntag_132:\n    /* \"#utility.yul\":6342:6393   */\n  swap6\n  pop\n    /* \"#utility.yul\":6426:6430   */\n  dup1\n    /* \"#utility.yul\":6422:6431   */\n  not\n    /* \"#utility.yul\":6415:6420   */\n  dup5\n    /* \"#utility.yul\":6411:6432   */\n  and\n    /* \"#utility.yul\":6402:6432   */\n  swap4\n  pop\n    /* \"#utility.yul\":6475:6479   */\n  dup1\n    /* \"#utility.yul\":6465:6473   */\n  dup7\n    /* \"#utility.yul\":6461:6480   */\n  and\n    /* \"#utility.yul\":6454:6459   */\n  dup5\n    /* \"#utility.yul\":6451:6481   */\n  or\n    /* \"#utility.yul\":6441:6481   */\n  swap3\n  pop\n    /* \"#utility.yul\":6170:6487   */\n  pop\n  pop\n    /* \"#utility.yul\":6094:6487   */\n  swap4\n  swap3\n  pop\n  pop\n  pop\n  jump\t// out\n    /* \"#utility.yul\":6493:6570   */\ntag_51:\n    /* \"#utility.yul\":6530:6537   */\n  0x00\n    /* \"#utility.yul\":6559:6564   */\n  dup2\n    /* \"#utility.yul\":6548:6564   */\n  swap1\n  pop\n    /* \"#utility.yul\":6493:6570   */\n  swap2\n  swap1\n  pop\n  jump\t// out\n    /* \"#utility.yul\":6576:6636   */\ntag_52:\n    /* \"#utility.yul\":6604:6607   */\n  0x00\n    /* \"#utility.yul\":6625:6630   */\n  dup2\n    /* \"#utility.yul\":6618:6630   */\n  swap1\n  pop\n    /* \"#utility.yul\":6576:6636   */\n  swap2\n  swap1\n  pop\n  jump\t// out\n    /* \"#utility.yul\":6642:6784   */\ntag_53:\n    /* \"#utility.yul\":6692:6701   */\n  0x00\n    /* \"#utility.yul\":6725:6778   */\n  tag_136\n    /* \"#utility.yul\":6743:6777   */\n  tag_137\n    /* \"#utility.yul\":6752:6776   */\n  tag_138\n    /* \"#utility.yul\":6770:6775   */\n  dup5\n    /* \"#utility.yul\":6752:6776   */\n  tag_51\n  jump\t// in\ntag_138:\n    /* \"#utility.yul\":6743:6777   */\n  tag_52\n  jump\t// in\ntag_137:\n    /* \"#utility.yul\":6725:6778   */\n  tag_51\n  jump\t// in\ntag_136:\n    /* \"#utility.yul\":6712:6778   */\n  swap1\n  pop\n    /* \"#utility.yul\":6642:6784   */\n  swap2\n  swap1\n  pop\n  jump\t// out\n    /* \"#utility.yul\":6790:6865   */\ntag_54:\n    /* \"#utility.yul\":6833:6836   */\n  0x00\n    /* \"#utility.yul\":6854:6859   */\n  dup2\n    /* \"#utility.yul\":6847:6859   */\n  swap1\n  pop\n    /* \"#utility.yul\":6790:6865   */\n  swap2\n  swap1\n  pop\n  jump\t// out\n    /* \"#utility.yul\":6871:7140   */\ntag_55:\n    /* \"#utility.yul\":6981:7020   */\n  tag_141\n    /* \"#utility.yul\":7012:7019   */\n  dup4\n    /* \"#utility.yul\":6981:7020   */\n  tag_53\n  jump\t// in\ntag_141:\n    /* \"#utility.yul\":7042:7133   */\n  tag_142\n    /* \"#utility.yul\":7091:7132   */\n  tag_143\n    /* \"#utility.yul\":7115:7131   */\n  dup3\n    /* \"#utility.yul\":7091:7132   */\n  tag_54\n  jump\t// in\ntag_143:\n    /* \"#utility.yul\":7083:7089   */\n  dup5\n    /* \"#utility.yul\":7076:7080   */\n  dup5\n    /* \"#utility.yul\":7070:7081   */\n  sload\n    /* \"#utility.yul\":7042:7133   */\n  tag_50\n  jump\t// in\ntag_142:\n    /* \"#utility.yul\":7036:7040   */\n  dup3\n    /* \"#utility.yul\":7029:7134   */\n  sstore\n    /* \"#utility.yul\":6947:7140   */\n  pop\n    /* \"#utility.yul\":6871:7140   */\n  pop\n  pop\n  pop\n  jump\t// out\n    /* \"#utility.yul\":7146:7219   */\ntag_56:\n    /* \"#utility.yul\":7191:7194   */\n  0x00\n    /* \"#utility.yul\":7146:7219   */\n  swap1\n  jump\t// out\n    /* \"#utility.yul\":7225:7414   */\ntag_57:\n    /* \"#utility.yul\":7302:7334   */\n  tag_146\n  tag_56\n  jump\t// in\ntag_146:\n    /* \"#utility.yul\":7343:7408   */\n  tag_147\n    /* \"#utility.yul\":7401:7407   */\n  dup2\n    /* \"#utility.yul\":7393:7399   */\n  dup5\n    /* \"#utility.yul\":7387:7391   */\n  dup5\n    /* \"#utility.yul\":7343:7408   */\n  tag_55\n  jump\t// in\ntag_147:\n    /* \"#utility.yul\":7278:7414   */\n  pop\n    /* \"#utility.yul\":7225:7414   */\n  pop\n  pop\n  jump\t// out\n    /* \"#utility.yul\":7420:7606   */\ntag_58:\n    /* \"#utility.yul\":7480:7600   */\ntag_149:\n    /* \"#utility.yul\":7497:7500   */\n  dup2\n    /* \"#utility.yul\":7490:7495   */\n  dup2\n    /* \"#utility.yul\":7487:7501   */\n  lt\n    /* \"#utility.yul\":7480:7600   */\n  iszero\n  tag_151\n  jumpi\n    /* \"#utility.yul\":7551:7590   */\n  tag_152\n    /* \"#utility.yul\":7588:7589   */\n  0x00\n    /* \"#utility.yul\":7581:7586   */\n  dup3\n    /* \"#utility.yul\":7551:7590   */\n  tag_57\n  jump\t// in\ntag_152:\n    /* \"#utility.yul\":7524:7525   */\n  0x01\n    /* \"#utility.yul\":7517:7522   */\n  dup2\n    /* \"#utility.yul\":7513:7526   */\n  add\n    /* \"#utility.yul\":7504:7526   */\n  swap1\n  pop\n    /* \"#utility.yul\":7480:7600   */\n  jump(tag_149)\ntag_151:\n    /* \"#utility.yul\":7420:7606   */\n  pop\n  pop\n  jump\t// out\n    /* \"#utility.yul\":7612:8155   */\ntag_59:\n    /* \"#utility.yul\":7713:7715   */\n  0x1f\n    /* \"#utility.yul\":7708:7711   */\n  dup3\n    /* \"#utility.yul\":7705:7716   */\n  gt\n    /* \"#utility.yul\":7702:8148   */\n  iszero\n  tag_154\n  jumpi\n    /* \"#utility.yul\":7747:7785   */\n  tag_155\n    /* \"#utility.yul\":7779:7784   */\n  dup2\n    /* \"#utility.yul\":7747:7785   */\n  tag_47\n  jump\t// in\ntag_155:\n    /* \"#utility.yul\":7831:7860   */\n  tag_156\n    /* \"#utility.yul\":7849:7859   */\n  dup5\n    /* \"#utility.yul\":7831:7860   */\n  tag_48\n  jump\t// in\ntag_156:\n    /* \"#utility.yul\":7821:7829   */\n  dup2\n    /* \"#utility.yul\":7817:7861   */\n  add\n    /* \"#utility.yul\":8014:8016   */\n  0x20\n    /* \"#utility.yul\":8002:8012   */\n  dup6\n    /* \"#utility.yul\":7999:8017   */\n  lt\n    /* \"#utility.yul\":7996:8045   */\n  iszero\n  tag_157\n  jumpi\n    /* \"#utility.yul\":8035:8043   */\n  dup2\n    /* \"#utility.yul\":8020:8043   */\n  swap1\n  pop\n    /* \"#utility.yul\":7996:8045   */\ntag_157:\n    /* \"#utility.yul\":8058:8138   */\n  tag_158\n    /* \"#utility.yul\":8114:8136   */\n  tag_159\n    /* \"#utility.yul\":8132:8135   */\n  dup6\n    /* \"#utility.yul\":8114:8136   */\n  tag_48\n  jump\t// in\ntag_159:\n    /* \"#utility.yul\":8104:8112   */\n  dup4\n    /* \"#utility.yul\":8100:8137   */\n  add\n    /* \"#utility.yul\":8087:8098   */\n  dup3\n    /* \"#utility.yul\":8058:8138   */\n  tag_58\n  jump\t// in\ntag_158:\n    /* \"#utility.yul\":7717:8148   */\n  pop\n  pop\n    /* \"#utility.yul\":7702:8148   */\ntag_154:\n    /* \"#utility.yul\":7612:8155   */\n  pop\n  pop\n  pop\n  jump\t// out\n    /* \"#utility.yul\":8161:8278   */\ntag_60:\n    /* \"#utility.yul\":8215:8223   */\n  0x00\n    /* \"#utility.yul\":8265:8270   */\n  dup3\n    /* \"#utility.yul\":8259:8263   */\n  dup3\n    /* \"#utility.yul\":8255:8271   */\n  shr\n    /* \"#utility.yul\":8234:8271   */\n  swap1\n  pop\n    /* \"#utility.yul\":8161:8278   */\n  swap3\n  swap2\n  pop\n  pop\n  jump\t// out\n    /* \"#utility.yul\":8284:8453   */\ntag_61:\n    /* \"#utility.yul\":8328:8334   */\n  0x00\n    /* \"#utility.yul\":8361:8412   */\n  tag_162\n    /* \"#utility.yul\":8409:8410   */\n  0x00\n    /* \"#utility.yul\":8405:8411   */\n  not\n    /* \"#utility.yul\":8397:8402   */\n  dup5\n    /* \"#utility.yul\":8394:8395   */\n  0x08\n    /* \"#utility.yul\":8390:8403   */\n  mul\n    /* \"#utility.yul\":8361:8412   */\n  tag_60\n  jump\t// in\ntag_162:\n    /* \"#utility.yul\":8357:8413   */\n  not\n    /* \"#utility.yul\":8442:8446   */\n  dup1\n    /* \"#utility.yul\":8436:8440   */\n  dup4\n    /* \"#utility.yul\":8432:8447   */\n  and\n    /* \"#utility.yul\":8422:8447   */\n  swap2\n  pop\n    /* \"#utility.yul\":8335:8453   */\n  pop\n    /* \"#utility.yul\":8284:8453   */\n  swap3\n  swap2\n  pop\n  pop\n  jump\t// out\n    /* \"#utility.yul\":8458:8753   */\ntag_62:\n    /* \"#utility.yul\":8534:8538   */\n  0x00\n    /* \"#utility.yul\":8680:8709   */\n  tag_164\n    /* \"#utility.yul\":8705:8708   */\n  dup4\n    /* \"#utility.yul\":8699:8703   */\n  dup4\n    /* \"#utility.yul\":8680:8709   */\n  tag_61\n  jump\t// in\ntag_164:\n    /* \"#utility.yul\":8672:8709   */\n  swap2\n  pop\n    /* \"#utility.yul\":8742:8745   */\n  dup3\n    /* \"#utility.yul\":8739:8740   */\n  0x02\n    /* \"#utility.yul\":8735:8746   */\n  mul\n    /* \"#utility.yul\":8729:8733   */\n  dup3\n    /* \"#utility.yul\":8726:8747   */\n  or\n    /* \"#utility.yul\":8718:8747   */\n  swap1\n  pop\n    /* \"#utility.yul\":8458:8753   */\n  swap3\n  swap2\n  pop\n  pop\n  jump\t// out\n    /* \"#utility.yul\":8758:10153   */\ntag_13:\n    /* \"#utility.yul\":8875:8912   */\n  tag_166\n    /* \"#utility.yul\":8908:8911   */\n  dup3\n    /* \"#utility.yul\":8875:8912   */\n  tag_45\n  jump\t// in\ntag_166:\n    /* \"#utility.yul\":8977:8995   */\n  0xffffffffffffffff\n    /* \"#utility.yul\":8969:8975   */\n  dup2\n    /* \"#utility.yul\":8966:8996   */\n  gt\n    /* \"#utility.yul\":8963:9019   */\n  iszero\n  tag_167\n  jumpi\n    /* \"#utility.yul\":8999:9017   */\n  tag_168\n  tag_33\n  jump\t// in\ntag_168:\n    /* \"#utility.yul\":8963:9019   */\ntag_167:\n    /* \"#utility.yul\":9043:9081   */\n  tag_169\n    /* \"#utility.yul\":9075:9079   */\n  dup3\n    /* \"#utility.yul\":9069:9080   */\n  sload\n    /* \"#utility.yul\":9043:9081   */\n  tag_21\n  jump\t// in\ntag_169:\n    /* \"#utility.yul\":9128:9195   */\n  tag_170\n    /* \"#utility.yul\":9188:9194   */\n  dup3\n    /* \"#utility.yul\":9180:9186   */\n  dup3\n    /* \"#utility.yul\":9174:9178   */\n  dup6\n    /* \"#utility.yul\":9128:9195   */\n  tag_59\n  jump\t// in\ntag_170:\n    /* \"#utility.yul\":9222:9223   */\n  0x00\n    /* \"#utility.yul\":9246:9250   */\n  0x20\n    /* \"#utility.yul\":9233:9250   */\n  swap1\n  pop\n    /* \"#utility.yul\":9278:9280   */\n  0x1f\n    /* \"#utility.yul\":9270:9276   */\n  dup4\n    /* \"#utility.yul\":9267:9281   */\n  gt\n    /* \"#utility.yul\":9295:9296   */\n  0x01\n    /* \"#utility.yul\":9290:9908   */\n  dup2\n  eq\n  tag_172\n  jumpi\n    /* \"#utility.yul\":9952:9953   */\n  0x00\n    /* \"#utility.yul\":9969:9975   */\n  dup5\n    /* \"#utility.yul\":9966:10043   */\n  iszero\n  tag_173\n  jumpi\n    /* \"#utility.yul\":10018:10027   */\n  dup3\n    /* \"#utility.yul\":10013:10016   */\n  dup8\n    /* \"#utility.yul\":10009:10028   */\n  add\n    /* \"#utility.yul\":10003:10029   */\n  mload\n    /* \"#utility.yul\":9994:10029   */\n  swap1\n  pop\n    /* \"#utility.yul\":9966:10043   */\ntag_173:\n    /* \"#utility.yul\":10069:10136   */\n  tag_174\n    /* \"#utility.yul\":10129:10135   */\n  dup6\n    /* \"#utility.yul\":10122:10127   */\n  dup3\n    /* \"#utility.yul\":10069:10136   */\n  tag_62\n  jump\t// in\ntag_174:\n    /* \"#utility.yul\":10063:10067   */\n  dup7\n    /* \"#utility.yul\":10056:10137   */\n  sstore\n    /* \"#utility.yul\":9925:10147   */\n  pop\n    /* \"#utility.yul\":9260:10147   */\n  jump(tag_171)\n    /* \"#utility.yul\":9290:9908   */\ntag_172:\n    /* \"#utility.yul\":9342:9346   */\n  0x1f\n    /* \"#utility.yul\":9338:9347   */\n  not\n    /* \"#utility.yul\":9330:9336   */\n  dup5\n    /* \"#utility.yul\":9326:9348   */\n  and\n    /* \"#utility.yul\":9376:9413   */\n  tag_175\n    /* \"#utility.yul\":9408:9412   */\n  dup7\n    /* \"#utility.yul\":9376:9413   */\n  tag_47\n  jump\t// in\ntag_175:\n    /* \"#utility.yul\":9435:9436   */\n  0x00\n    /* \"#utility.yul\":9449:9657   */\ntag_176:\n    /* \"#utility.yul\":9463:9470   */\n  dup3\n    /* \"#utility.yul\":9460:9461   */\n  dup2\n    /* \"#utility.yul\":9457:9471   */\n  lt\n    /* \"#utility.yul\":9449:9657   */\n  iszero\n  tag_178\n  jumpi\n    /* \"#utility.yul\":9542:9551   */\n  dup5\n    /* \"#utility.yul\":9537:9540   */\n  dup10\n    /* \"#utility.yul\":9533:9552   */\n  add\n    /* \"#utility.yul\":9527:9553   */\n  mload\n    /* \"#utility.yul\":9519:9525   */\n  dup3\n    /* \"#utility.yul\":9512:9554   */\n  sstore\n    /* \"#utility.yul\":9593:9594   */\n  0x01\n    /* \"#utility.yul\":9585:9591   */\n  dup3\n    /* \"#utility.yul\":9581:9595   */\n  add\n    /* \"#utility.yul\":9571:9595   */\n  swap2\n  pop\n    /* \"#utility.yul\":9640:9642   */\n  0x20\n    /* \"#utility.yul\":9629:9638   */\n  dup6\n    /* \"#utility.yul\":9625:9643   */\n  add\n    /* \"#utility.yul\":9612:9643   */\n  swap5\n  pop\n    /* \"#utility.yul\":9486:9490   */\n  0x20\n    /* \"#utility.yul\":9483:9484   */\n  dup2\n    /* \"#utility.yul\":9479:9491   */\n  add\n    /* \"#utility.yul\":9474:9491   */\n  swap1\n  pop\n    /* \"#utility.yul\":9449:9657   */\n  jump(tag_176)\ntag_178:\n    /* \"#utility.yul\":9685:9691   */\n  dup7\n    /* \"#utility.yul\":9676:9683   */\n  dup4\n    /* \"#utility.yul\":9673:9692   */\n  lt\n    /* \"#utility.yul\":9670:9849   */\n  iszero\n  tag_179\n  jumpi\n    /* \"#utility.yul\":9743:9752   */\n  dup5\n    /* \"#utility.yul\":9738:9741   */\n  dup10\n    /* \"#utility.yul\":9734:9753   */\n  add\n    /* \"#utility.yul\":9728:9754   */\n  mload\n    /* \"#utility.yul\":9786:9834   */\n  tag_180\n    /* \"#utility.yul\":9828:9832   */\n  0x1f\n    /* \"#utility.yul\":9820:9826   */\n  dup10\n    /* \"#utility.yul\":9816:9833   */\n  and\n    /* \"#utility.yul\":9805:9814   */\n  dup3\n    /* \"#utility.yul\":9786:9834   */\n  tag_61\n  jump\t// in\ntag_180:\n    /* \"#utility.yul\":9778:9784   */\n  dup4\n    /* \"#utility.yul\":9771:9835   */\n  sstore\n    /* \"#utility.yul\":9693:9849   */\n  pop\n    /* \"#utility.yul\":9670:9849   */\ntag_179:\n    /* \"#utility.yul\":9895:9896   */\n  0x01\n    /* \"#utility.yul\":9891:9892   */\n  0x02\n    /* \"#utility.yul\":9883:9889   */\n  dup9\n    /* \"#utility.yul\":9879:9893   */\n  mul\n    /* \"#utility.yul\":9875:9897   */\n  add\n    /* \"#utility.yul\":9869:9873   */\n  dup9\n    /* \"#utility.yul\":9862:9898   */\n  sstore\n    /* \"#utility.yul\":9297:9908   */\n  pop\n  pop\n  pop\n    /* \"#utility.yul\":9260:10147   */\ntag_171:\n  pop\n    /* \"#utility.yul\":8850:10153   */\n  pop\n  pop\n  pop\n    /* \"#utility.yul\":8758:10153   */\n  pop\n  pop\n  jump\t// out\n    /* \"contracts/DIOVoting.sol\":74:968  contract DIOVoting {... */\ntag_8:\n  dataSize(sub_0)\n  dup1\n  dataOffset(sub_0)\n  0x00\n  codecopy\n  0x00\n  return\nstop\n\nsub_0: assembly {\n        /* \"contracts/DIOVoting.sol\":74:968  contract DIOVoting {... */\n      mstore(0x40, 0x80)\n      callvalue\n      dup1\n      iszero\n      tag_1\n      jumpi\n      0x00\n      dup1\n      revert\n    tag_1:\n      pop\n      jumpi(tag_2, lt(calldatasize, 0x04))\n      shr(0xe0, calldataload(0x00))\n      dup1\n      0x4a3bf377\n      eq\n      tag_3\n      jumpi\n      dup1\n      0x538c91b2\n      eq\n      tag_4\n      jumpi\n      dup1\n      0x8d4b44d9\n      eq\n      tag_5\n      jumpi\n      dup1\n      0xb13c744b\n      eq\n      tag_6\n      jumpi\n      dup1\n      0xe89927ef\n      eq\n      tag_7\n      jumpi\n    tag_2:\n      0x00\n      dup1\n      revert\n        /* \"contracts/DIOVoting.sol\":295:468  function totalVotesFor(string memory candidate) view public returns (uint256) {... */\n    tag_3:\n      tag_8\n      0x04\n      dup1\n      calldatasize\n      sub\n      dup2\n      add\n      swap1\n      tag_9\n      swap2\n      swap1\n      tag_10\n      jump\t// in\n    tag_9:\n      tag_11\n      jump\t// in\n    tag_8:\n      mload(0x40)\n      tag_12\n      swap2\n      swap1\n      tag_13\n      jump\t// in\n    tag_12:\n      mload(0x40)\n      dup1\n      swap2\n      sub\n      swap1\n      return\n        /* \"contracts/DIOVoting.sol\":635:965  function validCandidate(string memory candidate) view public returns (bool) {... */\n    tag_4:\n      tag_14\n      0x04\n      dup1\n      calldatasize\n      sub\n      dup2\n      add\n      swap1\n      tag_15\n      swap2\n      swap1\n      tag_10\n      jump\t// in\n    tag_15:\n      tag_16\n      jump\t// in\n    tag_14:\n      mload(0x40)\n      tag_17\n      swap2\n      swap1\n      tag_18\n      jump\t// in\n    tag_17:\n      mload(0x40)\n      dup1\n      swap2\n      sub\n      swap1\n      return\n        /* \"contracts/DIOVoting.sol\":100:148  mapping (string => uint256) public votesReceived */\n    tag_5:\n      tag_19\n      0x04\n      dup1\n      calldatasize\n      sub\n      dup2\n      add\n      swap1\n      tag_20\n      swap2\n      swap1\n      tag_10\n      jump\t// in\n    tag_20:\n      tag_21\n      jump\t// in\n    tag_19:\n      mload(0x40)\n      tag_22\n      swap2\n      swap1\n      tag_13\n      jump\t// in\n    tag_22:\n      mload(0x40)\n      dup1\n      swap2\n      sub\n      swap1\n      return\n        /* \"contracts/DIOVoting.sol\":155:184  string[] public candidateList */\n    tag_6:\n      tag_23\n      0x04\n      dup1\n      calldatasize\n      sub\n      dup2\n      add\n      swap1\n      tag_24\n      swap2\n      swap1\n      tag_25\n      jump\t// in\n    tag_24:\n      tag_26\n      jump\t// in\n    tag_23:\n      mload(0x40)\n      tag_27\n      swap2\n      swap1\n      tag_28\n      jump\t// in\n    tag_27:\n      mload(0x40)\n      dup1\n      swap2\n      sub\n      swap1\n      return\n        /* \"contracts/DIOVoting.sol\":476:627  function voteForCandidate(string memory candidate) public {... */\n    tag_7:\n      tag_29\n      0x04\n      dup1\n      calldatasize\n      sub\n      dup2\n      add\n      swap1\n      tag_30\n      swap2\n      swap1\n      tag_10\n      jump\t// in\n    tag_30:\n      tag_31\n      jump\t// in\n    tag_29:\n      stop\n        /* \"contracts/DIOVoting.sol\":295:468  function totalVotesFor(string memory candidate) view public returns (uint256) {... */\n    tag_11:\n        /* \"contracts/DIOVoting.sol\":364:371  uint256 */\n      0x00\n        /* \"contracts/DIOVoting.sol\":392:417  validCandidate(candidate) */\n      tag_33\n        /* \"contracts/DIOVoting.sol\":407:416  candidate */\n      dup3\n        /* \"contracts/DIOVoting.sol\":392:406  validCandidate */\n      tag_16\n        /* \"contracts/DIOVoting.sol\":392:417  validCandidate(candidate) */\n      jump\t// in\n    tag_33:\n        /* \"contracts/DIOVoting.sol\":384:418  require(validCandidate(candidate)) */\n      tag_34\n      jumpi\n      0x00\n      dup1\n      revert\n    tag_34:\n        /* \"contracts/DIOVoting.sol\":436:449  votesReceived */\n      0x00\n        /* \"contracts/DIOVoting.sol\":450:459  candidate */\n      dup3\n        /* \"contracts/DIOVoting.sol\":436:460  votesReceived[candidate] */\n      mload(0x40)\n      tag_35\n      swap2\n      swap1\n      tag_36\n      jump\t// in\n    tag_35:\n      swap1\n      dup2\n      mstore\n      0x20\n      add\n      mload(0x40)\n      dup1\n      swap2\n      sub\n      swap1\n      keccak256\n      sload\n        /* \"contracts/DIOVoting.sol\":429:460  return votesReceived[candidate] */\n      swap1\n      pop\n        /* \"contracts/DIOVoting.sol\":295:468  function totalVotesFor(string memory candidate) view public returns (uint256) {... */\n      swap2\n      swap1\n      pop\n      jump\t// out\n        /* \"contracts/DIOVoting.sol\":635:965  function validCandidate(string memory candidate) view public returns (bool) {... */\n    tag_16:\n        /* \"contracts/DIOVoting.sol\":705:709  bool */\n      0x00\n        /* \"contracts/DIOVoting.sol\":727:733  uint i */\n      dup1\n        /* \"contracts/DIOVoting.sol\":736:737  0 */\n      0x00\n        /* \"contracts/DIOVoting.sol\":727:737  uint i = 0 */\n      swap1\n      pop\n        /* \"contracts/DIOVoting.sol\":722:935  for (uint i = 0; i < candidateList.length; i++) {... */\n    tag_38:\n        /* \"contracts/DIOVoting.sol\":743:756  candidateList */\n      0x01\n        /* \"contracts/DIOVoting.sol\":743:763  candidateList.length */\n      dup1\n      sload\n      swap1\n      pop\n        /* \"contracts/DIOVoting.sol\":739:740  i */\n      dup2\n        /* \"contracts/DIOVoting.sol\":739:763  i < candidateList.length */\n      lt\n        /* \"contracts/DIOVoting.sol\":722:935  for (uint i = 0; i < candidateList.length; i++) {... */\n      iszero\n      tag_39\n      jumpi\n        /* \"contracts/DIOVoting.sol\":865:874  candidate */\n      dup3\n        /* \"contracts/DIOVoting.sol\":848:875  abi.encodePacked(candidate) */\n      add(0x20, mload(0x40))\n      tag_41\n      swap2\n      swap1\n      tag_36\n      jump\t// in\n    tag_41:\n      mload(0x40)\n      0x20\n      dup2\n      dup4\n      sub\n      sub\n      dup2\n      mstore\n      swap1\n      0x40\n      mstore\n        /* \"contracts/DIOVoting.sol\":838:876  keccak256(abi.encodePacked(candidate)) */\n      dup1\n      mload\n      swap1\n      0x20\n      add\n      keccak256\n        /* \"contracts/DIOVoting.sol\":816:829  candidateList */\n      0x01\n        /* \"contracts/DIOVoting.sol\":830:831  i */\n      dup3\n        /* \"contracts/DIOVoting.sol\":816:832  candidateList[i] */\n      dup2\n      sload\n      dup2\n      lt\n      tag_42\n      jumpi\n      tag_43\n      tag_44\n      jump\t// in\n    tag_43:\n    tag_42:\n      swap1\n      0x00\n      mstore\n      keccak256(0x00, 0x20)\n      add\n        /* \"contracts/DIOVoting.sol\":799:833  abi.encodePacked(candidateList[i]) */\n      add(0x20, mload(0x40))\n      tag_46\n      swap2\n      swap1\n      tag_47\n      jump\t// in\n    tag_46:\n      mload(0x40)\n      0x20\n      dup2\n      dup4\n      sub\n      sub\n      dup2\n      mstore\n      swap1\n      0x40\n      mstore\n        /* \"contracts/DIOVoting.sol\":789:834  keccak256(abi.encodePacked(candidateList[i])) */\n      dup1\n      mload\n      swap1\n      0x20\n      add\n      keccak256\n        /* \"contracts/DIOVoting.sol\":789:876  keccak256(abi.encodePacked(candidateList[i])) == keccak256(abi.encodePacked(candidate)) */\n      sub\n        /* \"contracts/DIOVoting.sol\":785:924  if (keccak256(abi.encodePacked(candidateList[i])) == keccak256(abi.encodePacked(candidate))) {... */\n      tag_48\n      jumpi\n        /* \"contracts/DIOVoting.sol\":904:908  true */\n      0x01\n        /* \"contracts/DIOVoting.sol\":897:908  return true */\n      swap2\n      pop\n      pop\n      jump(tag_37)\n        /* \"contracts/DIOVoting.sol\":785:924  if (keccak256(abi.encodePacked(candidateList[i])) == keccak256(abi.encodePacked(candidate))) {... */\n    tag_48:\n        /* \"contracts/DIOVoting.sol\":765:768  i++ */\n      dup1\n      dup1\n      0x01\n      add\n      swap2\n      pop\n      pop\n        /* \"contracts/DIOVoting.sol\":722:935  for (uint i = 0; i < candidateList.length; i++) {... */\n      jump(tag_38)\n    tag_39:\n      pop\n        /* \"contracts/DIOVoting.sol\":952:957  false */\n      0x00\n        /* \"contracts/DIOVoting.sol\":945:957  return false */\n      swap1\n      pop\n        /* \"contracts/DIOVoting.sol\":635:965  function validCandidate(string memory candidate) view public returns (bool) {... */\n    tag_37:\n      swap2\n      swap1\n      pop\n      jump\t// out\n        /* \"contracts/DIOVoting.sol\":100:148  mapping (string => uint256) public votesReceived */\n    tag_21:\n      0x00\n      dup2\n      dup1\n      mload\n      0x20\n      dup2\n      add\n      dup3\n      add\n      dup1\n      mload\n      dup5\n      dup3\n      mstore\n      0x20\n      dup4\n      add\n      0x20\n      dup6\n      add\n      keccak256\n      dup2\n      dup4\n      mstore\n      dup1\n      swap6\n      pop\n      pop\n      pop\n      pop\n      pop\n      pop\n      0x00\n      swap2\n      pop\n      swap1\n      pop\n      sload\n      dup2\n      jump\t// out\n        /* \"contracts/DIOVoting.sol\":155:184  string[] public candidateList */\n    tag_26:\n      0x01\n      dup2\n      dup2\n      sload\n      dup2\n      lt\n      tag_49\n      jumpi\n      0x00\n      dup1\n      revert\n    tag_49:\n      swap1\n      0x00\n      mstore\n      keccak256(0x00, 0x20)\n      add\n      0x00\n      swap2\n      pop\n      swap1\n      pop\n      dup1\n      sload\n      tag_51\n      swap1\n      tag_52\n      jump\t// in\n    tag_51:\n      dup1\n      0x1f\n      add\n      0x20\n      dup1\n      swap2\n      div\n      mul\n      0x20\n      add\n      mload(0x40)\n      swap1\n      dup2\n      add\n      0x40\n      mstore\n      dup1\n      swap3\n      swap2\n      swap1\n      dup2\n      dup2\n      mstore\n      0x20\n      add\n      dup3\n      dup1\n      sload\n      tag_53\n      swap1\n      tag_52\n      jump\t// in\n    tag_53:\n      dup1\n      iszero\n      tag_54\n      jumpi\n      dup1\n      0x1f\n      lt\n      tag_55\n      jumpi\n      0x0100\n      dup1\n      dup4\n      sload\n      div\n      mul\n      dup4\n      mstore\n      swap2\n      0x20\n      add\n      swap2\n      jump(tag_54)\n    tag_55:\n      dup3\n      add\n      swap2\n      swap1\n      0x00\n      mstore\n      keccak256(0x00, 0x20)\n      swap1\n    tag_56:\n      dup2\n      sload\n      dup2\n      mstore\n      swap1\n      0x01\n      add\n      swap1\n      0x20\n      add\n      dup1\n      dup4\n      gt\n      tag_56\n      jumpi\n      dup3\n      swap1\n      sub\n      0x1f\n      and\n      dup3\n      add\n      swap2\n    tag_54:\n      pop\n      pop\n      pop\n      pop\n      pop\n      dup2\n      jump\t// out\n        /* \"contracts/DIOVoting.sol\":476:627  function voteForCandidate(string memory candidate) public {... */\n    tag_31:\n        /* \"contracts/DIOVoting.sol\":553:578  validCandidate(candidate) */\n      tag_58\n        /* \"contracts/DIOVoting.sol\":568:577  candidate */\n      dup2\n        /* \"contracts/DIOVoting.sol\":553:567  validCandidate */\n      tag_16\n        /* \"contracts/DIOVoting.sol\":553:578  validCandidate(candidate) */\n      jump\t// in\n    tag_58:\n        /* \"contracts/DIOVoting.sol\":545:579  require(validCandidate(candidate)) */\n      tag_59\n      jumpi\n      0x00\n      dup1\n      revert\n    tag_59:\n        /* \"contracts/DIOVoting.sol\":618:619  1 */\n      0x01\n        /* \"contracts/DIOVoting.sol\":590:603  votesReceived */\n      0x00\n        /* \"contracts/DIOVoting.sol\":604:613  candidate */\n      dup3\n        /* \"contracts/DIOVoting.sol\":590:614  votesReceived[candidate] */\n      mload(0x40)\n      tag_60\n      swap2\n      swap1\n      tag_36\n      jump\t// in\n    tag_60:\n      swap1\n      dup2\n      mstore\n      0x20\n      add\n      mload(0x40)\n      dup1\n      swap2\n      sub\n      swap1\n      keccak256\n      0x00\n        /* \"contracts/DIOVoting.sol\":590:619  votesReceived[candidate] += 1 */\n      dup3\n      dup3\n      sload\n      tag_61\n      swap2\n      swap1\n      tag_62\n      jump\t// in\n    tag_61:\n      swap3\n      pop\n      pop\n      dup2\n      swap1\n      sstore\n      pop\n        /* \"contracts/DIOVoting.sol\":476:627  function voteForCandidate(string memory candidate) public {... */\n      pop\n      jump\t// out\n        /* \"#utility.yul\":7:82   */\n    tag_63:\n        /* \"#utility.yul\":40:46   */\n      0x00\n        /* \"#utility.yul\":73:75   */\n      0x40\n        /* \"#utility.yul\":67:76   */\n      mload\n        /* \"#utility.yul\":57:76   */\n      swap1\n      pop\n        /* \"#utility.yul\":7:82   */\n      swap1\n      jump\t// out\n        /* \"#utility.yul\":88:205   */\n    tag_64:\n        /* \"#utility.yul\":197:198   */\n      0x00\n        /* \"#utility.yul\":194:195   */\n      dup1\n        /* \"#utility.yul\":187:199   */\n      revert\n        /* \"#utility.yul\":211:328   */\n    tag_65:\n        /* \"#utility.yul\":320:321   */\n      0x00\n        /* \"#utility.yul\":317:318   */\n      dup1\n        /* \"#utility.yul\":310:322   */\n      revert\n        /* \"#utility.yul\":334:451   */\n    tag_66:\n        /* \"#utility.yul\":443:444   */\n      0x00\n        /* \"#utility.yul\":440:441   */\n      dup1\n        /* \"#utility.yul\":433:445   */\n      revert\n        /* \"#utility.yul\":457:574   */\n    tag_67:\n        /* \"#utility.yul\":566:567   */\n      0x00\n        /* \"#utility.yul\":563:564   */\n      dup1\n        /* \"#utility.yul\":556:568   */\n      revert\n        /* \"#utility.yul\":580:682   */\n    tag_68:\n        /* \"#utility.yul\":621:627   */\n      0x00\n        /* \"#utility.yul\":672:674   */\n      0x1f\n        /* \"#utility.yul\":668:675   */\n      not\n        /* \"#utility.yul\":663:665   */\n      0x1f\n        /* \"#utility.yul\":656:661   */\n      dup4\n        /* \"#utility.yul\":652:666   */\n      add\n        /* \"#utility.yul\":648:676   */\n      and\n        /* \"#utility.yul\":638:676   */\n      swap1\n      pop\n        /* \"#utility.yul\":580:682   */\n      swap2\n      swap1\n      pop\n      jump\t// out\n        /* \"#utility.yul\":688:868   */\n    tag_69:\n        /* \"#utility.yul\":736:813   */\n      0x4e487b7100000000000000000000000000000000000000000000000000000000\n        /* \"#utility.yul\":733:734   */\n      0x00\n        /* \"#utility.yul\":726:814   */\n      mstore\n        /* \"#utility.yul\":833:837   */\n      0x41\n        /* \"#utility.yul\":830:831   */\n      0x04\n        /* \"#utility.yul\":823:838   */\n      mstore\n        /* \"#utility.yul\":857:861   */\n      0x24\n        /* \"#utility.yul\":854:855   */\n      0x00\n        /* \"#utility.yul\":847:862   */\n      revert\n        /* \"#utility.yul\":874:1155   */\n    tag_70:\n        /* \"#utility.yul\":957:984   */\n      tag_101\n        /* \"#utility.yul\":979:983   */\n      dup3\n        /* \"#utility.yul\":957:984   */\n      tag_68\n      jump\t// in\n    tag_101:\n        /* \"#utility.yul\":949:955   */\n      dup2\n        /* \"#utility.yul\":945:985   */\n      add\n        /* \"#utility.yul\":1087:1093   */\n      dup2\n        /* \"#utility.yul\":1075:1085   */\n      dup2\n        /* \"#utility.yul\":1072:1094   */\n      lt\n        /* \"#utility.yul\":1051:1069   */\n      0xffffffffffffffff\n        /* \"#utility.yul\":1039:1049   */\n      dup3\n        /* \"#utility.yul\":1036:1070   */\n      gt\n        /* \"#utility.yul\":1033:1095   */\n      or\n        /* \"#utility.yul\":1030:1118   */\n      iszero\n      tag_102\n      jumpi\n        /* \"#utility.yul\":1098:1116   */\n      tag_103\n      tag_69\n      jump\t// in\n    tag_103:\n        /* \"#utility.yul\":1030:1118   */\n    tag_102:\n        /* \"#utility.yul\":1138:1148   */\n      dup1\n        /* \"#utility.yul\":1134:1136   */\n      0x40\n        /* \"#utility.yul\":1127:1149   */\n      mstore\n        /* \"#utility.yul\":917:1155   */\n      pop\n        /* \"#utility.yul\":874:1155   */\n      pop\n      pop\n      jump\t// out\n        /* \"#utility.yul\":1161:1290   */\n    tag_71:\n        /* \"#utility.yul\":1195:1201   */\n      0x00\n        /* \"#utility.yul\":1222:1242   */\n      tag_105\n      tag_63\n      jump\t// in\n    tag_105:\n        /* \"#utility.yul\":1212:1242   */\n      swap1\n      pop\n        /* \"#utility.yul\":1251:1284   */\n      tag_106\n        /* \"#utility.yul\":1279:1283   */\n      dup3\n        /* \"#utility.yul\":1271:1277   */\n      dup3\n        /* \"#utility.yul\":1251:1284   */\n      tag_70\n      jump\t// in\n    tag_106:\n        /* \"#utility.yul\":1161:1290   */\n      swap2\n      swap1\n      pop\n      jump\t// out\n        /* \"#utility.yul\":1296:1604   */\n    tag_72:\n        /* \"#utility.yul\":1358:1362   */\n      0x00\n        /* \"#utility.yul\":1448:1466   */\n      0xffffffffffffffff\n        /* \"#utility.yul\":1440:1446   */\n      dup3\n        /* \"#utility.yul\":1437:1467   */\n      gt\n        /* \"#utility.yul\":1434:1490   */\n      iszero\n      tag_108\n      jumpi\n        /* \"#utility.yul\":1470:1488   */\n      tag_109\n      tag_69\n      jump\t// in\n    tag_109:\n        /* \"#utility.yul\":1434:1490   */\n    tag_108:\n        /* \"#utility.yul\":1508:1537   */\n      tag_110\n        /* \"#utility.yul\":1530:1536   */\n      dup3\n        /* \"#utility.yul\":1508:1537   */\n      tag_68\n      jump\t// in\n    tag_110:\n        /* \"#utility.yul\":1500:1537   */\n      swap1\n      pop\n        /* \"#utility.yul\":1592:1596   */\n      0x20\n        /* \"#utility.yul\":1586:1590   */\n      dup2\n        /* \"#utility.yul\":1582:1597   */\n      add\n        /* \"#utility.yul\":1574:1597   */\n      swap1\n      pop\n        /* \"#utility.yul\":1296:1604   */\n      swap2\n      swap1\n      pop\n      jump\t// out\n        /* \"#utility.yul\":1610:1758   */\n    tag_73:\n        /* \"#utility.yul\":1708:1714   */\n      dup3\n        /* \"#utility.yul\":1703:1706   */\n      dup2\n        /* \"#utility.yul\":1698:1701   */\n      dup4\n        /* \"#utility.yul\":1685:1715   */\n      calldatacopy\n        /* \"#utility.yul\":1749:1750   */\n      0x00\n        /* \"#utility.yul\":1740:1746   */\n      dup4\n        /* \"#utility.yul\":1735:1738   */\n      dup4\n        /* \"#utility.yul\":1731:1747   */\n      add\n        /* \"#utility.yul\":1724:1751   */\n      mstore\n        /* \"#utility.yul\":1610:1758   */\n      pop\n      pop\n      pop\n      jump\t// out\n        /* \"#utility.yul\":1764:2189   */\n    tag_74:\n        /* \"#utility.yul\":1842:1847   */\n      0x00\n        /* \"#utility.yul\":1867:1933   */\n      tag_113\n        /* \"#utility.yul\":1883:1932   */\n      tag_114\n        /* \"#utility.yul\":1925:1931   */\n      dup5\n        /* \"#utility.yul\":1883:1932   */\n      tag_72\n      jump\t// in\n    tag_114:\n        /* \"#utility.yul\":1867:1933   */\n      tag_71\n      jump\t// in\n    tag_113:\n        /* \"#utility.yul\":1858:1933   */\n      swap1\n      pop\n        /* \"#utility.yul\":1956:1962   */\n      dup3\n        /* \"#utility.yul\":1949:1954   */\n      dup2\n        /* \"#utility.yul\":1942:1963   */\n      mstore\n        /* \"#utility.yul\":1994:1998   */\n      0x20\n        /* \"#utility.yul\":1987:1992   */\n      dup2\n        /* \"#utility.yul\":1983:1999   */\n      add\n        /* \"#utility.yul\":2032:2035   */\n      dup5\n        /* \"#utility.yul\":2023:2029   */\n      dup5\n        /* \"#utility.yul\":2018:2021   */\n      dup5\n        /* \"#utility.yul\":2014:2030   */\n      add\n        /* \"#utility.yul\":2011:2036   */\n      gt\n        /* \"#utility.yul\":2008:2120   */\n      iszero\n      tag_115\n      jumpi\n        /* \"#utility.yul\":2039:2118   */\n      tag_116\n      tag_67\n      jump\t// in\n    tag_116:\n        /* \"#utility.yul\":2008:2120   */\n    tag_115:\n        /* \"#utility.yul\":2129:2183   */\n      tag_117\n        /* \"#utility.yul\":2176:2182   */\n      dup5\n        /* \"#utility.yul\":2171:2174   */\n      dup3\n        /* \"#utility.yul\":2166:2169   */\n      dup6\n        /* \"#utility.yul\":2129:2183   */\n      tag_73\n      jump\t// in\n    tag_117:\n        /* \"#utility.yul\":1848:2189   */\n      pop\n        /* \"#utility.yul\":1764:2189   */\n      swap4\n      swap3\n      pop\n      pop\n      pop\n      jump\t// out\n        /* \"#utility.yul\":2209:2549   */\n    tag_75:\n        /* \"#utility.yul\":2265:2270   */\n      0x00\n        /* \"#utility.yul\":2314:2317   */\n      dup3\n        /* \"#utility.yul\":2307:2311   */\n      0x1f\n        /* \"#utility.yul\":2299:2305   */\n      dup4\n        /* \"#utility.yul\":2295:2312   */\n      add\n        /* \"#utility.yul\":2291:2318   */\n      slt\n        /* \"#utility.yul\":2281:2403   */\n      tag_119\n      jumpi\n        /* \"#utility.yul\":2322:2401   */\n      tag_120\n      tag_66\n      jump\t// in\n    tag_120:\n        /* \"#utility.yul\":2281:2403   */\n    tag_119:\n        /* \"#utility.yul\":2439:2445   */\n      dup2\n        /* \"#utility.yul\":2426:2446   */\n      calldataload\n        /* \"#utility.yul\":2464:2543   */\n      tag_121\n        /* \"#utility.yul\":2539:2542   */\n      dup5\n        /* \"#utility.yul\":2531:2537   */\n      dup3\n        /* \"#utility.yul\":2524:2528   */\n      0x20\n        /* \"#utility.yul\":2516:2522   */\n      dup7\n        /* \"#utility.yul\":2512:2529   */\n      add\n        /* \"#utility.yul\":2464:2543   */\n      tag_74\n      jump\t// in\n    tag_121:\n        /* \"#utility.yul\":2455:2543   */\n      swap2\n      pop\n        /* \"#utility.yul\":2271:2549   */\n      pop\n        /* \"#utility.yul\":2209:2549   */\n      swap3\n      swap2\n      pop\n      pop\n      jump\t// out\n        /* \"#utility.yul\":2555:3064   */\n    tag_10:\n        /* \"#utility.yul\":2624:2630   */\n      0x00\n        /* \"#utility.yul\":2673:2675   */\n      0x20\n        /* \"#utility.yul\":2661:2670   */\n      dup3\n        /* \"#utility.yul\":2652:2659   */\n      dup5\n        /* \"#utility.yul\":2648:2671   */\n      sub\n        /* \"#utility.yul\":2644:2676   */\n      slt\n        /* \"#utility.yul\":2641:2760   */\n      iszero\n      tag_123\n      jumpi\n        /* \"#utility.yul\":2679:2758   */\n      tag_124\n      tag_64\n      jump\t// in\n    tag_124:\n        /* \"#utility.yul\":2641:2760   */\n    tag_123:\n        /* \"#utility.yul\":2827:2828   */\n      0x00\n        /* \"#utility.yul\":2816:2825   */\n      dup3\n        /* \"#utility.yul\":2812:2829   */\n      add\n        /* \"#utility.yul\":2799:2830   */\n      calldataload\n        /* \"#utility.yul\":2857:2875   */\n      0xffffffffffffffff\n        /* \"#utility.yul\":2849:2855   */\n      dup2\n        /* \"#utility.yul\":2846:2876   */\n      gt\n        /* \"#utility.yul\":2843:2960   */\n      iszero\n      tag_125\n      jumpi\n        /* \"#utility.yul\":2879:2958   */\n      tag_126\n      tag_65\n      jump\t// in\n    tag_126:\n        /* \"#utility.yul\":2843:2960   */\n    tag_125:\n        /* \"#utility.yul\":2984:3047   */\n      tag_127\n        /* \"#utility.yul\":3039:3046   */\n      dup5\n        /* \"#utility.yul\":3030:3036   */\n      dup3\n        /* \"#utility.yul\":3019:3028   */\n      dup6\n        /* \"#utility.yul\":3015:3037   */\n      add\n        /* \"#utility.yul\":2984:3047   */\n      tag_75\n      jump\t// in\n    tag_127:\n        /* \"#utility.yul\":2974:3047   */\n      swap2\n      pop\n        /* \"#utility.yul\":2770:3057   */\n      pop\n        /* \"#utility.yul\":2555:3064   */\n      swap3\n      swap2\n      pop\n      pop\n      jump\t// out\n        /* \"#utility.yul\":3070:3147   */\n    tag_76:\n        /* \"#utility.yul\":3107:3114   */\n      0x00\n        /* \"#utility.yul\":3136:3141   */\n      dup2\n        /* \"#utility.yul\":3125:3141   */\n      swap1\n      pop\n        /* \"#utility.yul\":3070:3147   */\n      swap2\n      swap1\n      pop\n      jump\t// out\n        /* \"#utility.yul\":3153:3271   */\n    tag_77:\n        /* \"#utility.yul\":3240:3264   */\n      tag_130\n        /* \"#utility.yul\":3258:3263   */\n      dup2\n        /* \"#utility.yul\":3240:3264   */\n      tag_76\n      jump\t// in\n    tag_130:\n        /* \"#utility.yul\":3235:3238   */\n      dup3\n        /* \"#utility.yul\":3228:3265   */\n      mstore\n        /* \"#utility.yul\":3153:3271   */\n      pop\n      pop\n      jump\t// out\n        /* \"#utility.yul\":3277:3499   */\n    tag_13:\n        /* \"#utility.yul\":3370:3374   */\n      0x00\n        /* \"#utility.yul\":3408:3410   */\n      0x20\n        /* \"#utility.yul\":3397:3406   */\n      dup3\n        /* \"#utility.yul\":3393:3411   */\n      add\n        /* \"#utility.yul\":3385:3411   */\n      swap1\n      pop\n        /* \"#utility.yul\":3421:3492   */\n      tag_132\n        /* \"#utility.yul\":3489:3490   */\n      0x00\n        /* \"#utility.yul\":3478:3487   */\n      dup4\n        /* \"#utility.yul\":3474:3491   */\n      add\n        /* \"#utility.yul\":3465:3471   */\n      dup5\n        /* \"#utility.yul\":3421:3492   */\n      tag_77\n      jump\t// in\n    tag_132:\n        /* \"#utility.yul\":3277:3499   */\n      swap3\n      swap2\n      pop\n      pop\n      jump\t// out\n        /* \"#utility.yul\":3505:3595   */\n    tag_78:\n        /* \"#utility.yul\":3539:3546   */\n      0x00\n        /* \"#utility.yul\":3582:3587   */\n      dup2\n        /* \"#utility.yul\":3575:3588   */\n      iszero\n        /* \"#utility.yul\":3568:3589   */\n      iszero\n        /* \"#utility.yul\":3557:3589   */\n      swap1\n      pop\n        /* \"#utility.yul\":3505:3595   */\n      swap2\n      swap1\n      pop\n      jump\t// out\n        /* \"#utility.yul\":3601:3710   */\n    tag_79:\n        /* \"#utility.yul\":3682:3703   */\n      tag_135\n        /* \"#utility.yul\":3697:3702   */\n      dup2\n        /* \"#utility.yul\":3682:3703   */\n      tag_78\n      jump\t// in\n    tag_135:\n        /* \"#utility.yul\":3677:3680   */\n      dup3\n        /* \"#utility.yul\":3670:3704   */\n      mstore\n        /* \"#utility.yul\":3601:3710   */\n      pop\n      pop\n      jump\t// out\n        /* \"#utility.yul\":3716:3926   */\n    tag_18:\n        /* \"#utility.yul\":3803:3807   */\n      0x00\n        /* \"#utility.yul\":3841:3843   */\n      0x20\n        /* \"#utility.yul\":3830:3839   */\n      dup3\n        /* \"#utility.yul\":3826:3844   */\n      add\n        /* \"#utility.yul\":3818:3844   */\n      swap1\n      pop\n        /* \"#utility.yul\":3854:3919   */\n      tag_137\n        /* \"#utility.yul\":3916:3917   */\n      0x00\n        /* \"#utility.yul\":3905:3914   */\n      dup4\n        /* \"#utility.yul\":3901:3918   */\n      add\n        /* \"#utility.yul\":3892:3898   */\n      dup5\n        /* \"#utility.yul\":3854:3919   */\n      tag_79\n      jump\t// in\n    tag_137:\n        /* \"#utility.yul\":3716:3926   */\n      swap3\n      swap2\n      pop\n      pop\n      jump\t// out\n        /* \"#utility.yul\":3932:4054   */\n    tag_80:\n        /* \"#utility.yul\":4005:4029   */\n      tag_139\n        /* \"#utility.yul\":4023:4028   */\n      dup2\n        /* \"#utility.yul\":4005:4029   */\n      tag_76\n      jump\t// in\n    tag_139:\n        /* \"#utility.yul\":3998:4003   */\n      dup2\n        /* \"#utility.yul\":3995:4030   */\n      eq\n        /* \"#utility.yul\":3985:4048   */\n      tag_140\n      jumpi\n        /* \"#utility.yul\":4044:4045   */\n      0x00\n        /* \"#utility.yul\":4041:4042   */\n      dup1\n        /* \"#utility.yul\":4034:4046   */\n      revert\n        /* \"#utility.yul\":3985:4048   */\n    tag_140:\n        /* \"#utility.yul\":3932:4054   */\n      pop\n      jump\t// out\n        /* \"#utility.yul\":4060:4199   */\n    tag_81:\n        /* \"#utility.yul\":4106:4111   */\n      0x00\n        /* \"#utility.yul\":4144:4150   */\n      dup2\n        /* \"#utility.yul\":4131:4151   */\n      calldataload\n        /* \"#utility.yul\":4122:4151   */\n      swap1\n      pop\n        /* \"#utility.yul\":4160:4193   */\n      tag_142\n        /* \"#utility.yul\":4187:4192   */\n      dup2\n        /* \"#utility.yul\":4160:4193   */\n      tag_80\n      jump\t// in\n    tag_142:\n        /* \"#utility.yul\":4060:4199   */\n      swap3\n      swap2\n      pop\n      pop\n      jump\t// out\n        /* \"#utility.yul\":4205:4534   */\n    tag_25:\n        /* \"#utility.yul\":4264:4270   */\n      0x00\n        /* \"#utility.yul\":4313:4315   */\n      0x20\n        /* \"#utility.yul\":4301:4310   */\n      dup3\n        /* \"#utility.yul\":4292:4299   */\n      dup5\n        /* \"#utility.yul\":4288:4311   */\n      sub\n        /* \"#utility.yul\":4284:4316   */\n      slt\n        /* \"#utility.yul\":4281:4400   */\n      iszero\n      tag_144\n      jumpi\n        /* \"#utility.yul\":4319:4398   */\n      tag_145\n      tag_64\n      jump\t// in\n    tag_145:\n        /* \"#utility.yul\":4281:4400   */\n    tag_144:\n        /* \"#utility.yul\":4439:4440   */\n      0x00\n        /* \"#utility.yul\":4464:4517   */\n      tag_146\n        /* \"#utility.yul\":4509:4516   */\n      dup5\n        /* \"#utility.yul\":4500:4506   */\n      dup3\n        /* \"#utility.yul\":4489:4498   */\n      dup6\n        /* \"#utility.yul\":4485:4507   */\n      add\n        /* \"#utility.yul\":4464:4517   */\n      tag_81\n      jump\t// in\n    tag_146:\n        /* \"#utility.yul\":4454:4517   */\n      swap2\n      pop\n        /* \"#utility.yul\":4410:4527   */\n      pop\n        /* \"#utility.yul\":4205:4534   */\n      swap3\n      swap2\n      pop\n      pop\n      jump\t// out\n        /* \"#utility.yul\":4540:4639   */\n    tag_82:\n        /* \"#utility.yul\":4592:4598   */\n      0x00\n        /* \"#utility.yul\":4626:4631   */\n      dup2\n        /* \"#utility.yul\":4620:4632   */\n      mload\n        /* \"#utility.yul\":4610:4632   */\n      swap1\n      pop\n        /* \"#utility.yul\":4540:4639   */\n      swap2\n      swap1\n      pop\n      jump\t// out\n        /* \"#utility.yul\":4645:4814   */\n    tag_83:\n        /* \"#utility.yul\":4729:4740   */\n      0x00\n        /* \"#utility.yul\":4763:4769   */\n      dup3\n        /* \"#utility.yul\":4758:4761   */\n      dup3\n        /* \"#utility.yul\":4751:4770   */\n      mstore\n        /* \"#utility.yul\":4803:4807   */\n      0x20\n        /* \"#utility.yul\":4798:4801   */\n      dup3\n        /* \"#utility.yul\":4794:4808   */\n      add\n        /* \"#utility.yul\":4779:4808   */\n      swap1\n      pop\n        /* \"#utility.yul\":4645:4814   */\n      swap3\n      swap2\n      pop\n      pop\n      jump\t// out\n        /* \"#utility.yul\":4820:5068   */\n    tag_84:\n        /* \"#utility.yul\":4902:4903   */\n      0x00\n        /* \"#utility.yul\":4912:5025   */\n    tag_150:\n        /* \"#utility.yul\":4926:4932   */\n      dup4\n        /* \"#utility.yul\":4923:4924   */\n      dup2\n        /* \"#utility.yul\":4920:4933   */\n      lt\n        /* \"#utility.yul\":4912:5025   */\n      iszero\n      tag_152\n      jumpi\n        /* \"#utility.yul\":5011:5012   */\n      dup1\n        /* \"#utility.yul\":5006:5009   */\n      dup3\n        /* \"#utility.yul\":5002:5013   */\n      add\n        /* \"#utility.yul\":4996:5014   */\n      mload\n        /* \"#utility.yul\":4992:4993   */\n      dup2\n        /* \"#utility.yul\":4987:4990   */\n      dup5\n        /* \"#utility.yul\":4983:4994   */\n      add\n        /* \"#utility.yul\":4976:5015   */\n      mstore\n        /* \"#utility.yul\":4948:4950   */\n      0x20\n        /* \"#utility.yul\":4945:4946   */\n      dup2\n        /* \"#utility.yul\":4941:4951   */\n      add\n        /* \"#utility.yul\":4936:4951   */\n      swap1\n      pop\n        /* \"#utility.yul\":4912:5025   */\n      jump(tag_150)\n    tag_152:\n        /* \"#utility.yul\":5059:5060   */\n      0x00\n        /* \"#utility.yul\":5050:5056   */\n      dup5\n        /* \"#utility.yul\":5045:5048   */\n      dup5\n        /* \"#utility.yul\":5041:5057   */\n      add\n        /* \"#utility.yul\":5034:5061   */\n      mstore\n        /* \"#utility.yul\":4882:5068   */\n      pop\n        /* \"#utility.yul\":4820:5068   */\n      pop\n      pop\n      pop\n      jump\t// out\n        /* \"#utility.yul\":5074:5451   */\n    tag_85:\n        /* \"#utility.yul\":5162:5165   */\n      0x00\n        /* \"#utility.yul\":5190:5229   */\n      tag_154\n        /* \"#utility.yul\":5223:5228   */\n      dup3\n        /* \"#utility.yul\":5190:5229   */\n      tag_82\n      jump\t// in\n    tag_154:\n        /* \"#utility.yul\":5245:5316   */\n      tag_155\n        /* \"#utility.yul\":5309:5315   */\n      dup2\n        /* \"#utility.yul\":5304:5307   */\n      dup6\n        /* \"#utility.yul\":5245:5316   */\n      tag_83\n      jump\t// in\n    tag_155:\n        /* \"#utility.yul\":5238:5316   */\n      swap4\n      pop\n        /* \"#utility.yul\":5325:5390   */\n      tag_156\n        /* \"#utility.yul\":5383:5389   */\n      dup2\n        /* \"#utility.yul\":5378:5381   */\n      dup6\n        /* \"#utility.yul\":5371:5375   */\n      0x20\n        /* \"#utility.yul\":5364:5369   */\n      dup7\n        /* \"#utility.yul\":5360:5376   */\n      add\n        /* \"#utility.yul\":5325:5390   */\n      tag_84\n      jump\t// in\n    tag_156:\n        /* \"#utility.yul\":5415:5444   */\n      tag_157\n        /* \"#utility.yul\":5437:5443   */\n      dup2\n        /* \"#utility.yul\":5415:5444   */\n      tag_68\n      jump\t// in\n    tag_157:\n        /* \"#utility.yul\":5410:5413   */\n      dup5\n        /* \"#utility.yul\":5406:5445   */\n      add\n        /* \"#utility.yul\":5399:5445   */\n      swap2\n      pop\n        /* \"#utility.yul\":5166:5451   */\n      pop\n        /* \"#utility.yul\":5074:5451   */\n      swap3\n      swap2\n      pop\n      pop\n      jump\t// out\n        /* \"#utility.yul\":5457:5770   */\n    tag_28:\n        /* \"#utility.yul\":5570:5574   */\n      0x00\n        /* \"#utility.yul\":5608:5610   */\n      0x20\n        /* \"#utility.yul\":5597:5606   */\n      dup3\n        /* \"#utility.yul\":5593:5611   */\n      add\n        /* \"#utility.yul\":5585:5611   */\n      swap1\n      pop\n        /* \"#utility.yul\":5657:5666   */\n      dup2\n        /* \"#utility.yul\":5651:5655   */\n      dup2\n        /* \"#utility.yul\":5647:5667   */\n      sub\n        /* \"#utility.yul\":5643:5644   */\n      0x00\n        /* \"#utility.yul\":5632:5641   */\n      dup4\n        /* \"#utility.yul\":5628:5645   */\n      add\n        /* \"#utility.yul\":5621:5668   */\n      mstore\n        /* \"#utility.yul\":5685:5763   */\n      tag_159\n        /* \"#utility.yul\":5758:5762   */\n      dup2\n        /* \"#utility.yul\":5749:5755   */\n      dup5\n        /* \"#utility.yul\":5685:5763   */\n      tag_85\n      jump\t// in\n    tag_159:\n        /* \"#utility.yul\":5677:5763   */\n      swap1\n      pop\n        /* \"#utility.yul\":5457:5770   */\n      swap3\n      swap2\n      pop\n      pop\n      jump\t// out\n        /* \"#utility.yul\":5776:5924   */\n    tag_86:\n        /* \"#utility.yul\":5878:5889   */\n      0x00\n        /* \"#utility.yul\":5915:5918   */\n      dup2\n        /* \"#utility.yul\":5900:5918   */\n      swap1\n      pop\n        /* \"#utility.yul\":5776:5924   */\n      swap3\n      swap2\n      pop\n      pop\n      jump\t// out\n        /* \"#utility.yul\":5930:6320   */\n    tag_87:\n        /* \"#utility.yul\":6036:6039   */\n      0x00\n        /* \"#utility.yul\":6064:6103   */\n      tag_162\n        /* \"#utility.yul\":6097:6102   */\n      dup3\n        /* \"#utility.yul\":6064:6103   */\n      tag_82\n      jump\t// in\n    tag_162:\n        /* \"#utility.yul\":6119:6208   */\n      tag_163\n        /* \"#utility.yul\":6201:6207   */\n      dup2\n        /* \"#utility.yul\":6196:6199   */\n      dup6\n        /* \"#utility.yul\":6119:6208   */\n      tag_86\n      jump\t// in\n    tag_163:\n        /* \"#utility.yul\":6112:6208   */\n      swap4\n      pop\n        /* \"#utility.yul\":6217:6282   */\n      tag_164\n        /* \"#utility.yul\":6275:6281   */\n      dup2\n        /* \"#utility.yul\":6270:6273   */\n      dup6\n        /* \"#utility.yul\":6263:6267   */\n      0x20\n        /* \"#utility.yul\":6256:6261   */\n      dup7\n        /* \"#utility.yul\":6252:6268   */\n      add\n        /* \"#utility.yul\":6217:6282   */\n      tag_84\n      jump\t// in\n    tag_164:\n        /* \"#utility.yul\":6307:6313   */\n      dup1\n        /* \"#utility.yul\":6302:6305   */\n      dup5\n        /* \"#utility.yul\":6298:6314   */\n      add\n        /* \"#utility.yul\":6291:6314   */\n      swap2\n      pop\n        /* \"#utility.yul\":6040:6320   */\n      pop\n        /* \"#utility.yul\":5930:6320   */\n      swap3\n      swap2\n      pop\n      pop\n      jump\t// out\n        /* \"#utility.yul\":6326:6601   */\n    tag_36:\n        /* \"#utility.yul\":6458:6461   */\n      0x00\n        /* \"#utility.yul\":6480:6575   */\n      tag_166\n        /* \"#utility.yul\":6571:6574   */\n      dup3\n        /* \"#utility.yul\":6562:6568   */\n      dup5\n        /* \"#utility.yul\":6480:6575   */\n      tag_87\n      jump\t// in\n    tag_166:\n        /* \"#utility.yul\":6473:6575   */\n      swap2\n      pop\n        /* \"#utility.yul\":6592:6595   */\n      dup2\n        /* \"#utility.yul\":6585:6595   */\n      swap1\n      pop\n        /* \"#utility.yul\":6326:6601   */\n      swap3\n      swap2\n      pop\n      pop\n      jump\t// out\n        /* \"#utility.yul\":6607:6787   */\n    tag_44:\n        /* \"#utility.yul\":6655:6732   */\n      0x4e487b7100000000000000000000000000000000000000000000000000000000\n        /* \"#utility.yul\":6652:6653   */\n      0x00\n        /* \"#utility.yul\":6645:6733   */\n      mstore\n        /* \"#utility.yul\":6752:6756   */\n      0x32\n        /* \"#utility.yul\":6749:6750   */\n      0x04\n        /* \"#utility.yul\":6742:6757   */\n      mstore\n        /* \"#utility.yul\":6776:6780   */\n      0x24\n        /* \"#utility.yul\":6773:6774   */\n      0x00\n        /* \"#utility.yul\":6766:6781   */\n      revert\n        /* \"#utility.yul\":6793:6973   */\n    tag_88:\n        /* \"#utility.yul\":6841:6918   */\n      0x4e487b7100000000000000000000000000000000000000000000000000000000\n        /* \"#utility.yul\":6838:6839   */\n      0x00\n        /* \"#utility.yul\":6831:6919   */\n      mstore\n        /* \"#utility.yul\":6938:6942   */\n      0x22\n        /* \"#utility.yul\":6935:6936   */\n      0x04\n        /* \"#utility.yul\":6928:6943   */\n      mstore\n        /* \"#utility.yul\":6962:6966   */\n      0x24\n        /* \"#utility.yul\":6959:6960   */\n      0x00\n        /* \"#utility.yul\":6952:6967   */\n      revert\n        /* \"#utility.yul\":6979:7299   */\n    tag_52:\n        /* \"#utility.yul\":7023:7029   */\n      0x00\n        /* \"#utility.yul\":7060:7061   */\n      0x02\n        /* \"#utility.yul\":7054:7058   */\n      dup3\n        /* \"#utility.yul\":7050:7062   */\n      div\n        /* \"#utility.yul\":7040:7062   */\n      swap1\n      pop\n        /* \"#utility.yul\":7107:7108   */\n      0x01\n        /* \"#utility.yul\":7101:7105   */\n      dup3\n        /* \"#utility.yul\":7097:7109   */\n      and\n        /* \"#utility.yul\":7128:7146   */\n      dup1\n        /* \"#utility.yul\":7118:7199   */\n      tag_170\n      jumpi\n        /* \"#utility.yul\":7184:7188   */\n      0x7f\n        /* \"#utility.yul\":7176:7182   */\n      dup3\n        /* \"#utility.yul\":7172:7189   */\n      and\n        /* \"#utility.yul\":7162:7189   */\n      swap2\n      pop\n        /* \"#utility.yul\":7118:7199   */\n    tag_170:\n        /* \"#utility.yul\":7246:7248   */\n      0x20\n        /* \"#utility.yul\":7238:7244   */\n      dup3\n        /* \"#utility.yul\":7235:7249   */\n      lt\n        /* \"#utility.yul\":7215:7233   */\n      dup2\n        /* \"#utility.yul\":7212:7250   */\n      sub\n        /* \"#utility.yul\":7209:7293   */\n      tag_171\n      jumpi\n        /* \"#utility.yul\":7265:7283   */\n      tag_172\n      tag_88\n      jump\t// in\n    tag_172:\n        /* \"#utility.yul\":7209:7293   */\n    tag_171:\n        /* \"#utility.yul\":7030:7299   */\n      pop\n        /* \"#utility.yul\":6979:7299   */\n      swap2\n      swap1\n      pop\n      jump\t// out\n        /* \"#utility.yul\":7305:7446   */\n    tag_89:\n        /* \"#utility.yul\":7354:7358   */\n      0x00\n        /* \"#utility.yul\":7377:7380   */\n      dup2\n        /* \"#utility.yul\":7369:7380   */\n      swap1\n      pop\n        /* \"#utility.yul\":7400:7403   */\n      dup2\n        /* \"#utility.yul\":7397:7398   */\n      0x00\n        /* \"#utility.yul\":7390:7404   */\n      mstore\n        /* \"#utility.yul\":7434:7438   */\n      0x20\n        /* \"#utility.yul\":7431:7432   */\n      0x00\n        /* \"#utility.yul\":7421:7439   */\n      keccak256\n        /* \"#utility.yul\":7413:7439   */\n      swap1\n      pop\n        /* \"#utility.yul\":7305:7446   */\n      swap2\n      swap1\n      pop\n      jump\t// out\n        /* \"#utility.yul\":7476:8350   */\n    tag_90:\n        /* \"#utility.yul\":7579:7582   */\n      0x00\n        /* \"#utility.yul\":7616:7621   */\n      dup2\n        /* \"#utility.yul\":7610:7622   */\n      sload\n        /* \"#utility.yul\":7645:7681   */\n      tag_175\n        /* \"#utility.yul\":7671:7680   */\n      dup2\n        /* \"#utility.yul\":7645:7681   */\n      tag_52\n      jump\t// in\n    tag_175:\n        /* \"#utility.yul\":7697:7786   */\n      tag_176\n        /* \"#utility.yul\":7779:7785   */\n      dup2\n        /* \"#utility.yul\":7774:7777   */\n      dup7\n        /* \"#utility.yul\":7697:7786   */\n      tag_86\n      jump\t// in\n    tag_176:\n        /* \"#utility.yul\":7690:7786   */\n      swap5\n      pop\n        /* \"#utility.yul\":7817:7818   */\n      0x01\n        /* \"#utility.yul\":7806:7815   */\n      dup3\n        /* \"#utility.yul\":7802:7819   */\n      and\n        /* \"#utility.yul\":7833:7834   */\n      0x00\n        /* \"#utility.yul\":7828:7994   */\n      dup2\n      eq\n      tag_178\n      jumpi\n        /* \"#utility.yul\":8008:8009   */\n      0x01\n        /* \"#utility.yul\":8003:8344   */\n      dup2\n      eq\n      tag_179\n      jumpi\n        /* \"#utility.yul\":7795:8344   */\n      jump(tag_177)\n        /* \"#utility.yul\":7828:7994   */\n    tag_178:\n        /* \"#utility.yul\":7912:7916   */\n      0xff\n        /* \"#utility.yul\":7908:7917   */\n      not\n        /* \"#utility.yul\":7897:7906   */\n      dup4\n        /* \"#utility.yul\":7893:7918   */\n      and\n        /* \"#utility.yul\":7888:7891   */\n      dup7\n        /* \"#utility.yul\":7881:7919   */\n      mstore\n        /* \"#utility.yul\":7974:7980   */\n      dup2\n        /* \"#utility.yul\":7967:7981   */\n      iszero\n        /* \"#utility.yul\":7960:7982   */\n      iszero\n        /* \"#utility.yul\":7952:7958   */\n      dup3\n        /* \"#utility.yul\":7948:7983   */\n      mul\n        /* \"#utility.yul\":7943:7946   */\n      dup7\n        /* \"#utility.yul\":7939:7984   */\n      add\n        /* \"#utility.yul\":7932:7984   */\n      swap4\n      pop\n        /* \"#utility.yul\":7828:7994   */\n      jump(tag_177)\n        /* \"#utility.yul\":8003:8344   */\n    tag_179:\n        /* \"#utility.yul\":8070:8108   */\n      tag_180\n        /* \"#utility.yul\":8102:8107   */\n      dup6\n        /* \"#utility.yul\":8070:8108   */\n      tag_89\n      jump\t// in\n    tag_180:\n        /* \"#utility.yul\":8130:8131   */\n      0x00\n        /* \"#utility.yul\":8144:8298   */\n    tag_181:\n        /* \"#utility.yul\":8158:8164   */\n      dup4\n        /* \"#utility.yul\":8155:8156   */\n      dup2\n        /* \"#utility.yul\":8152:8165   */\n      lt\n        /* \"#utility.yul\":8144:8298   */\n      iszero\n      tag_183\n      jumpi\n        /* \"#utility.yul\":8232:8239   */\n      dup2\n        /* \"#utility.yul\":8226:8240   */\n      sload\n        /* \"#utility.yul\":8222:8223   */\n      dup2\n        /* \"#utility.yul\":8217:8220   */\n      dup10\n        /* \"#utility.yul\":8213:8224   */\n      add\n        /* \"#utility.yul\":8206:8241   */\n      mstore\n        /* \"#utility.yul\":8282:8283   */\n      0x01\n        /* \"#utility.yul\":8273:8280   */\n      dup3\n        /* \"#utility.yul\":8269:8284   */\n      add\n        /* \"#utility.yul\":8258:8284   */\n      swap2\n      pop\n        /* \"#utility.yul\":8180:8184   */\n      0x20\n        /* \"#utility.yul\":8177:8178   */\n      dup2\n        /* \"#utility.yul\":8173:8185   */\n      add\n        /* \"#utility.yul\":8168:8185   */\n      swap1\n      pop\n        /* \"#utility.yul\":8144:8298   */\n      jump(tag_181)\n    tag_183:\n        /* \"#utility.yul\":8327:8333   */\n      dup4\n        /* \"#utility.yul\":8322:8325   */\n      dup9\n        /* \"#utility.yul\":8318:8334   */\n      add\n        /* \"#utility.yul\":8311:8334   */\n      swap6\n      pop\n        /* \"#utility.yul\":8010:8344   */\n      pop\n      pop\n        /* \"#utility.yul\":7795:8344   */\n    tag_177:\n      pop\n        /* \"#utility.yul\":7583:8350   */\n      pop\n      pop\n        /* \"#utility.yul\":7476:8350   */\n      swap3\n      swap2\n      pop\n      pop\n      jump\t// out\n        /* \"#utility.yul\":8356:8625   */\n    tag_47:\n        /* \"#utility.yul\":8485:8488   */\n      0x00\n        /* \"#utility.yul\":8507:8599   */\n      tag_185\n        /* \"#utility.yul\":8595:8598   */\n      dup3\n        /* \"#utility.yul\":8586:8592   */\n      dup5\n        /* \"#utility.yul\":8507:8599   */\n      tag_90\n      jump\t// in\n    tag_185:\n        /* \"#utility.yul\":8500:8599   */\n      swap2\n      pop\n        /* \"#utility.yul\":8616:8619   */\n      dup2\n        /* \"#utility.yul\":8609:8619   */\n      swap1\n      pop\n        /* \"#utility.yul\":8356:8625   */\n      swap3\n      swap2\n      pop\n      pop\n      jump\t// out\n        /* \"#utility.yul\":8631:8811   */\n    tag_91:\n        /* \"#utility.yul\":8679:8756   */\n      0x4e487b7100000000000000000000000000000000000000000000000000000000\n        /* \"#utility.yul\":8676:8677   */\n      0x00\n        /* \"#utility.yul\":8669:8757   */\n      mstore\n        /* \"#utility.yul\":8776:8780   */\n      0x11\n        /* \"#utility.yul\":8773:8774   */\n      0x04\n        /* \"#utility.yul\":8766:8781   */\n      mstore\n        /* \"#utility.yul\":8800:8804   */\n      0x24\n        /* \"#utility.yul\":8797:8798   */\n      0x00\n        /* \"#utility.yul\":8790:8805   */\n      revert\n        /* \"#utility.yul\":8817:9008   */\n    tag_62:\n        /* \"#utility.yul\":8857:8860   */\n      0x00\n        /* \"#utility.yul\":8876:8896   */\n      tag_188\n        /* \"#utility.yul\":8894:8895   */\n      dup3\n        /* \"#utility.yul\":8876:8896   */\n      tag_76\n      jump\t// in\n    tag_188:\n        /* \"#utility.yul\":8871:8896   */\n      swap2\n      pop\n        /* \"#utility.yul\":8910:8930   */\n      tag_189\n        /* \"#utility.yul\":8928:8929   */\n      dup4\n        /* \"#utility.yul\":8910:8930   */\n      tag_76\n      jump\t// in\n    tag_189:\n        /* \"#utility.yul\":8905:8930   */\n      swap3\n      pop\n        /* \"#utility.yul\":8953:8954   */\n      dup3\n        /* \"#utility.yul\":8950:8951   */\n      dup3\n        /* \"#utility.yul\":8946:8955   */\n      add\n        /* \"#utility.yul\":8939:8955   */\n      swap1\n      pop\n        /* \"#utility.yul\":8974:8977   */\n      dup1\n        /* \"#utility.yul\":8971:8972   */\n      dup3\n        /* \"#utility.yul\":8968:8978   */\n      gt\n        /* \"#utility.yul\":8965:9001   */\n      iszero\n      tag_190\n      jumpi\n        /* \"#utility.yul\":8981:8999   */\n      tag_191\n      tag_91\n      jump\t// in\n    tag_191:\n        /* \"#utility.yul\":8965:9001   */\n    tag_190:\n        /* \"#utility.yul\":8817:9008   */\n      swap3\n      swap2\n      pop\n      pop\n      jump\t// out\n\n    auxdata: 0xa264697066735822122076407cc794b175909ccc0f58dd213e5bb2366f1a110f446d17ab69b2f17fcbcf64736f6c634300081a0033\n}\n",
				"bytecode": {
					"linkReferences": {},
					"object": "608060405234801561001057600080fd5b50604051610f3e380380610f3e83398181016040528101906100329190610384565b806001908051906020019061004892919061004f565b50506106c0565b828054828255906000526020600020908101928215610097579160200282015b8281111561009657825182908161008691906105ee565b509160200191906001019061006f565b5b5090506100a491906100a8565b5090565b5b808211156100c857600081816100bf91906100cc565b506001016100a9565b5090565b5080546100d890610407565b6000825580601f106100ea5750610109565b601f016020900490600052602060002090810190610108919061010c565b5b50565b5b8082111561012557600081600090555060010161010d565b5090565b6000604051905090565b600080fd5b600080fd5b600080fd5b6000601f19601f8301169050919050565b7f4e487b7100000000000000000000000000000000000000000000000000000000600052604160045260246000fd5b61018b82610142565b810181811067ffffffffffffffff821117156101aa576101a9610153565b5b80604052505050565b60006101bd610129565b90506101c98282610182565b919050565b600067ffffffffffffffff8211156101e9576101e8610153565b5b602082029050602081019050919050565b600080fd5b600080fd5b600067ffffffffffffffff82111561021f5761021e610153565b5b61022882610142565b9050602081019050919050565b60005b83811015610253578082015181840152602081019050610238565b60008484015250505050565b600061027261026d84610204565b6101b3565b90508281526020810184848401111561028e5761028d6101ff565b5b610299848285610235565b509392505050565b600082601f8301126102b6576102b561013d565b5b81516102c684826020860161025f565b91505092915050565b60006102e26102dd846101ce565b6101b3565b90508083825260208201905060208402830185811115610305576103046101fa565b5b835b8181101561034c57805167ffffffffffffffff81111561032a5761032961013d565b5b80860161033789826102a1565b85526020850194505050602081019050610307565b5050509392505050565b600082601f83011261036b5761036a61013d565b5b815161037b8482602086016102cf565b91505092915050565b60006020828403121561039a57610399610133565b5b600082015167ffffffffffffffff8111156103b8576103b7610138565b5b6103c484828501610356565b91505092915050565b600081519050919050565b7f4e487b7100000000000000000000000000000000000000000000000000000000600052602260045260246000fd5b6000600282049050600182168061041f57607f821691505b602082108103610432576104316103d8565b5b50919050565b60008190508160005260206000209050919050565b60006020601f8301049050919050565b600082821b905092915050565b60006008830261049a7fffffffffffffffffffffffffffffffffffffffffffffffffffffffffffffffff8261045d565b6104a4868361045d565b95508019841693508086168417925050509392505050565b6000819050919050565b6000819050919050565b60006104eb6104e66104e1846104bc565b6104c6565b6104bc565b9050919050565b6000819050919050565b610505836104d0565b610519610511826104f2565b84845461046a565b825550505050565b600090565b61052e610521565b6105398184846104fc565b505050565b5b8181101561055d57610552600082610526565b60018101905061053f565b5050565b601f8211156105a25761057381610438565b61057c8461044d565b8101602085101561058b578190505b61059f6105978561044d565b83018261053e565b50505b505050565b600082821c905092915050565b60006105c5600019846008026105a7565b1980831691505092915050565b60006105de83836105b4565b9150826002028217905092915050565b6105f7826103cd565b67ffffffffffffffff8111156106105761060f610153565b5b61061a8254610407565b610625828285610561565b600060209050601f8311600181146106585760008415610646578287015190505b61065085826105d2565b8655506106b8565b601f19841661066686610438565b60005b8281101561068e57848901518255600182019150602085019450602081019050610669565b868310156106ab57848901516106a7601f8916826105b4565b8355505b6001600288020188555050505b505050505050565b61086f806106cf6000396000f3fe608060405234801561001057600080fd5b50600436106100575760003560e01c80634a3bf3771461005c578063538c91b21461008c5780638d4b44d9146100bc578063b13c744b146100ec578063e89927ef1461011c575b600080fd5b61007660048036038101906100719190610498565b610138565b60405161008391906104fa565b60405180910390f35b6100a660048036038101906100a19190610498565b610172565b6040516100b39190610530565b60405180910390f35b6100d660048036038101906100d19190610498565b610219565b6040516100e391906104fa565b60405180910390f35b61010660048036038101906101019190610577565b610247565b6040516101139190610623565b60405180910390f35b61013660048036038101906101319190610498565b6102f3565b005b600061014382610172565b61014c57600080fd5b60008260405161015c9190610681565b9081526020016040518091039020549050919050565b600080600090505b60018054905081101561020e57826040516020016101989190610681565b60405160208183030381529060405280519060200120600182815481106101c2576101c1610698565b5b906000526020600020016040516020016101dc91906107bf565b6040516020818303038152906040528051906020012003610201576001915050610214565b808060010191505061017a565b50600090505b919050565b6000818051602081018201805184825260208301602085012081835280955050505050506000915090505481565b6001818154811061025757600080fd5b906000526020600020016000915090508054610272906106f6565b80601f016020809104026020016040519081016040528092919081815260200182805461029e906106f6565b80156102eb5780601f106102c0576101008083540402835291602001916102eb565b820191906000526020600020905b8154815290600101906020018083116102ce57829003601f168201915b505050505081565b6102fc81610172565b61030557600080fd5b60016000826040516103179190610681565b908152602001604051809103902060008282546103349190610805565b9250508190555050565b6000604051905090565b600080fd5b600080fd5b600080fd5b600080fd5b6000601f19601f8301169050919050565b7f4e487b7100000000000000000000000000000000000000000000000000000000600052604160045260246000fd5b6103a58261035c565b810181811067ffffffffffffffff821117156103c4576103c361036d565b5b80604052505050565b60006103d761033e565b90506103e3828261039c565b919050565b600067ffffffffffffffff8211156104035761040261036d565b5b61040c8261035c565b9050602081019050919050565b82818337600083830152505050565b600061043b610436846103e8565b6103cd565b90508281526020810184848401111561045757610456610357565b5b610462848285610419565b509392505050565b600082601f83011261047f5761047e610352565b5b813561048f848260208601610428565b91505092915050565b6000602082840312156104ae576104ad610348565b5b600082013567ffffffffffffffff8111156104cc576104cb61034d565b5b6104d88482850161046a565b91505092915050565b6000819050919050565b6104f4816104e1565b82525050565b600060208201905061050f60008301846104eb565b92915050565b60008115159050919050565b61052a81610515565b82525050565b60006020820190506105456000830184610521565b92915050565b610554816104e1565b811461055f57600080fd5b50565b6000813590506105718161054b565b92915050565b60006020828403121561058d5761058c610348565b5b600061059b84828501610562565b91505092915050565b600081519050919050565b600082825260208201905092915050565b60005b838110156105de5780820151818401526020810190506105c3565b60008484015250505050565b60006105f5826105a4565b6105ff81856105af565b935061060f8185602086016105c0565b6106188161035c565b840191505092915050565b6000602082019050818103600083015261063d81846105ea565b905092915050565b600081905092915050565b600061065b826105a4565b6106658185610645565b93506106758185602086016105c0565b80840191505092915050565b600061068d8284610650565b915081905092915050565b7f4e487b7100000000000000000000000000000000000000000000000000000000600052603260045260246000fd5b7f4e487b7100000000000000000000000000000000000000000000000000000000600052602260045260246000fd5b6000600282049050600182168061070e57607f821691505b602082108103610721576107206106c7565b5b50919050565b60008190508160005260206000209050919050565b60008154610749816106f6565b6107538186610645565b9450600182166000811461076e5760018114610783576107b6565b60ff19831686528115158202860193506107b6565b61078c85610727565b60005b838110156107ae5781548189015260018201915060208101905061078f565b838801955050505b50505092915050565b60006107cb828461073c565b915081905092915050565b7f4e487b7100000000000000000000000000000000000000000000000000000000600052601160045260246000fd5b6000610810826104e1565b915061081b836104e1565b9250828201905080821115610833576108326107d6565b5b9291505056fea264697066735822122076407cc794b175909ccc0f58dd213e5bb2366f1a110f446d17ab69b2f17fcbcf64736f6c634300081a0033",
					"opcodes": "PUSH1 0x80 PUSH1 0x40 MSTORE CALLVALUE DUP1 ISZERO PUSH2 0x10 JUMPI PUSH1 0x0 DUP1 REVERT JUMPDEST POP PUSH1 0x40 MLOAD PUSH2 0xF3E CODESIZE SUB DUP1 PUSH2 0xF3E DUP4 CODECOPY DUP2 DUP2 ADD PUSH1 0x40 MSTORE DUP2 ADD SWAP1 PUSH2 0x32 SWAP2 SWAP1 PUSH2 0x384 JUMP JUMPDEST DUP1 PUSH1 0x1 SWAP1 DUP1 MLOAD SWAP1 PUSH1 0x20 ADD SWAP1 PUSH2 0x48 SWAP3 SWAP2 SWAP1 PUSH2 0x4F JUMP JUMPDEST POP POP PUSH2 0x6C0 JUMP JUMPDEST DUP3 DUP1 SLOAD DUP3 DUP3 SSTORE SWAP1 PUSH1 0x0 MSTORE PUSH1 0x20 PUSH1 0x0 KECCAK256 SWAP1 DUP2 ADD SWAP3 DUP3 ISZERO PUSH2 0x97 JUMPI SWAP2 PUSH1 0x20 MUL DUP3 ADD JUMPDEST DUP3 DUP2 GT ISZERO PUSH2 0x96 JUMPI DUP3 MLOAD DUP3 SWAP1 DUP2 PUSH2 0x86 SWAP2 SWAP1 PUSH2 0x5EE JUMP JUMPDEST POP SWAP2 PUSH1 0x20 ADD SWAP2 SWAP1 PUSH1 0x1 ADD SWAP1 PUSH2 0x6F JUMP JUMPDEST JUMPDEST POP SWAP1 POP PUSH2 0xA4 SWAP2 SWAP1 PUSH2 0xA8 JUMP JUMPDEST POP SWAP1 JUMP JUMPDEST JUMPDEST DUP1 DUP3 GT ISZERO PUSH2 0xC8 JUMPI PUSH1 0x0 DUP2 DUP2 PUSH2 0xBF SWAP2 SWAP1 PUSH2 0xCC JUMP JUMPDEST POP PUSH1 0x1 ADD PUSH2 0xA9 JUMP JUMPDEST POP SWAP1 JUMP JUMPDEST POP DUP1 SLOAD PUSH2 0xD8 SWAP1 PUSH2 0x407 JUMP JUMPDEST PUSH1 0x0 DUP3 SSTORE DUP1 PUSH1 0x1F LT PUSH2 0xEA JUMPI POP PUSH2 0x109 JUMP JUMPDEST PUSH1 0x1F ADD PUSH1 0x20 SWAP1 DIV SWAP1 PUSH1 0x0 MSTORE PUSH1 0x20 PUSH1 0x0 KECCAK256 SWAP1 DUP2 ADD SWAP1 PUSH2 0x108 SWAP2 SWAP1 PUSH2 0x10C JUMP JUMPDEST JUMPDEST POP JUMP JUMPDEST JUMPDEST DUP1 DUP3 GT ISZERO PUSH2 0x125 JUMPI PUSH1 0x0 DUP2 PUSH1 0x0 SWAP1 SSTORE POP PUSH1 0x1 ADD PUSH2 0x10D JUMP JUMPDEST POP SWAP1 JUMP JUMPDEST PUSH1 0x0 PUSH1 0x40 MLOAD SWAP1 POP SWAP1 JUMP JUMPDEST PUSH1 0x0 DUP1 REVERT JUMPDEST PUSH1 0x0 DUP1 REVERT JUMPDEST PUSH1 0x0 DUP1 REVERT JUMPDEST PUSH1 0x0 PUSH1 0x1F NOT PUSH1 0x1F DUP4 ADD AND SWAP1 POP SWAP2 SWAP1 POP JUMP JUMPDEST PUSH32 0x4E487B7100000000000000000000000000000000000000000000000000000000 PUSH1 0x0 MSTORE PUSH1 0x41 PUSH1 0x4 MSTORE PUSH1 0x24 PUSH1 0x0 REVERT JUMPDEST PUSH2 0x18B DUP3 PUSH2 0x142 JUMP JUMPDEST DUP2 ADD DUP2 DUP2 LT PUSH8 0xFFFFFFFFFFFFFFFF DUP3 GT OR ISZERO PUSH2 0x1AA JUMPI PUSH2 0x1A9 PUSH2 0x153 JUMP JUMPDEST JUMPDEST DUP1 PUSH1 0x40 MSTORE POP POP POP JUMP JUMPDEST PUSH1 0x0 PUSH2 0x1BD PUSH2 0x129 JUMP JUMPDEST SWAP1 POP PUSH2 0x1C9 DUP3 DUP3 PUSH2 0x182 JUMP JUMPDEST SWAP2 SWAP1 POP JUMP JUMPDEST PUSH1 0x0 PUSH8 0xFFFFFFFFFFFFFFFF DUP3 GT ISZERO PUSH2 0x1E9 JUMPI PUSH2 0x1E8 PUSH2 0x153 JUMP JUMPDEST JUMPDEST PUSH1 0x20 DUP3 MUL SWAP1 POP PUSH1 0x20 DUP2 ADD SWAP1 POP SWAP2 SWAP1 POP JUMP JUMPDEST PUSH1 0x0 DUP1 REVERT JUMPDEST PUSH1 0x0 DUP1 REVERT JUMPDEST PUSH1 0x0 PUSH8 0xFFFFFFFFFFFFFFFF DUP3 GT ISZERO PUSH2 0x21F JUMPI PUSH2 0x21E PUSH2 0x153 JUMP JUMPDEST JUMPDEST PUSH2 0x228 DUP3 PUSH2 0x142 JUMP JUMPDEST SWAP1 POP PUSH1 0x20 DUP2 ADD SWAP1 POP SWAP2 SWAP1 POP JUMP JUMPDEST PUSH1 0x0 JUMPDEST DUP4 DUP2 LT ISZERO PUSH2 0x253 JUMPI DUP1 DUP3 ADD MLOAD DUP2 DUP5 ADD MSTORE PUSH1 0x20 DUP2 ADD SWAP1 POP PUSH2 0x238 JUMP JUMPDEST PUSH1 0x0 DUP5 DUP5 ADD MSTORE POP POP POP POP JUMP JUMPDEST PUSH1 0x0 PUSH2 0x272 PUSH2 0x26D DUP5 PUSH2 0x204 JUMP JUMPDEST PUSH2 0x1B3 JUMP JUMPDEST SWAP1 POP DUP3 DUP2 MSTORE PUSH1 0x20 DUP2 ADD DUP5 DUP5 DUP5 ADD GT ISZERO PUSH2 0x28E JUMPI PUSH2 0x28D PUSH2 0x1FF JUMP JUMPDEST JUMPDEST PUSH2 0x299 DUP5 DUP3 DUP6 PUSH2 0x235 JUMP JUMPDEST POP SWAP4 SWAP3 POP POP POP JUMP JUMPDEST PUSH1 0x0 DUP3 PUSH1 0x1F DUP4 ADD SLT PUSH2 0x2B6 JUMPI PUSH2 0x2B5 PUSH2 0x13D JUMP JUMPDEST JUMPDEST DUP2 MLOAD PUSH2 0x2C6 DUP5 DUP3 PUSH1 0x20 DUP7 ADD PUSH2 0x25F JUMP JUMPDEST SWAP2 POP POP SWAP3 SWAP2 POP POP JUMP JUMPDEST PUSH1 0x0 PUSH2 0x2E2 PUSH2 0x2DD DUP5 PUSH2 0x1CE JUMP JUMPDEST PUSH2 0x1B3 JUMP JUMPDEST SWAP1 POP DUP1 DUP4 DUP3 MSTORE PUSH1 0x20 DUP3 ADD SWAP1 POP PUSH1 0x20 DUP5 MUL DUP4 ADD DUP6 DUP2 GT ISZERO PUSH2 0x305 JUMPI PUSH2 0x304 PUSH2 0x1FA JUMP JUMPDEST JUMPDEST DUP4 JUMPDEST DUP2 DUP2 LT ISZERO PUSH2 0x34C JUMPI DUP1 MLOAD PUSH8 0xFFFFFFFFFFFFFFFF DUP2 GT ISZERO PUSH2 0x32A JUMPI PUSH2 0x329 PUSH2 0x13D JUMP JUMPDEST JUMPDEST DUP1 DUP7 ADD PUSH2 0x337 DUP10 DUP3 PUSH2 0x2A1 JUMP JUMPDEST DUP6 MSTORE PUSH1 0x20 DUP6 ADD SWAP5 POP POP POP PUSH1 0x20 DUP2 ADD SWAP1 POP PUSH2 0x307 JUMP JUMPDEST POP POP POP SWAP4 SWAP3 POP POP POP JUMP JUMPDEST PUSH1 0x0 DUP3 PUSH1 0x1F DUP4 ADD SLT PUSH2 0x36B JUMPI PUSH2 0x36A PUSH2 0x13D JUMP JUMPDEST JUMPDEST DUP2 MLOAD PUSH2 0x37B DUP5 DUP3 PUSH1 0x20 DUP7 ADD PUSH2 0x2CF JUMP JUMPDEST SWAP2 POP POP SWAP3 SWAP2 POP POP JUMP JUMPDEST PUSH1 0x0 PUSH1 0x20 DUP3 DUP5 SUB SLT ISZERO PUSH2 0x39A JUMPI PUSH2 0x399 PUSH2 0x133 JUMP JUMPDEST JUMPDEST PUSH1 0x0 DUP3 ADD MLOAD PUSH8 0xFFFFFFFFFFFFFFFF DUP2 GT ISZERO PUSH2 0x3B8 JUMPI PUSH2 0x3B7 PUSH2 0x138 JUMP JUMPDEST JUMPDEST PUSH2 0x3C4 DUP5 DUP3 DUP6 ADD PUSH2 0x356 JUMP JUMPDEST SWAP2 POP POP SWAP3 SWAP2 POP POP JUMP JUMPDEST PUSH1 0x0 DUP2 MLOAD SWAP1 POP SWAP2 SWAP1 POP JUMP JUMPDEST PUSH32 0x4E487B7100000000000000000000000000000000000000000000000000000000 PUSH1 0x0 MSTORE PUSH1 0x22 PUSH1 0x4 MSTORE PUSH1 0x24 PUSH1 0x0 REVERT JUMPDEST PUSH1 0x0 PUSH1 0x2 DUP3 DIV SWAP1 POP PUSH1 0x1 DUP3 AND DUP1 PUSH2 0x41F JUMPI PUSH1 0x7F DUP3 AND SWAP2 POP JUMPDEST PUSH1 0x20 DUP3 LT DUP2 SUB PUSH2 0x432 JUMPI PUSH2 0x431 PUSH2 0x3D8 JUMP JUMPDEST JUMPDEST POP SWAP2 SWAP1 POP JUMP JUMPDEST PUSH1 0x0 DUP2 SWAP1 POP DUP2 PUSH1 0x0 MSTORE PUSH1 0x20 PUSH1 0x0 KECCAK256 SWAP1 POP SWAP2 SWAP1 POP JUMP JUMPDEST PUSH1 0x0 PUSH1 0x20 PUSH1 0x1F DUP4 ADD DIV SWAP1 POP SWAP2 SWAP1 POP JUMP JUMPDEST PUSH1 0x0 DUP3 DUP3 SHL SWAP1 POP SWAP3 SWAP2 POP POP JUMP JUMPDEST PUSH1 0x0 PUSH1 0x8 DUP4 MUL PUSH2 0x49A PUSH32 0xFFFFFFFFFFFFFFFFFFFFFFFFFFFFFFFFFFFFFFFFFFFFFFFFFFFFFFFFFFFFFFFF DUP3 PUSH2 0x45D JUMP JUMPDEST PUSH2 0x4A4 DUP7 DUP4 PUSH2 0x45D JUMP JUMPDEST SWAP6 POP DUP1 NOT DUP5 AND SWAP4 POP DUP1 DUP7 AND DUP5 OR SWAP3 POP POP POP SWAP4 SWAP3 POP POP POP JUMP JUMPDEST PUSH1 0x0 DUP2 SWAP1 POP SWAP2 SWAP1 POP JUMP JUMPDEST PUSH1 0x0 DUP2 SWAP1 POP SWAP2 SWAP1 POP JUMP JUMPDEST PUSH1 0x0 PUSH2 0x4EB PUSH2 0x4E6 PUSH2 0x4E1 DUP5 PUSH2 0x4BC JUMP JUMPDEST PUSH2 0x4C6 JUMP JUMPDEST PUSH2 0x4BC JUMP JUMPDEST SWAP1 POP SWAP2 SWAP1 POP JUMP JUMPDEST PUSH1 0x0 DUP2 SWAP1 POP SWAP2 SWAP1 POP JUMP JUMPDEST PUSH2 0x505 DUP4 PUSH2 0x4D0 JUMP JUMPDEST PUSH2 0x519 PUSH2 0x511 DUP3 PUSH2 0x4F2 JUMP JUMPDEST DUP5 DUP5 SLOAD PUSH2 0x46A JUMP JUMPDEST DUP3 SSTORE POP POP POP POP JUMP JUMPDEST PUSH1 0x0 SWAP1 JUMP JUMPDEST PUSH2 0x52E PUSH2 0x521 JUMP JUMPDEST PUSH2 0x539 DUP2 DUP5 DUP5 PUSH2 0x4FC JUMP JUMPDEST POP POP POP JUMP JUMPDEST JUMPDEST DUP2 DUP2 LT ISZERO PUSH2 0x55D JUMPI PUSH2 0x552 PUSH1 0x0 DUP3 PUSH2 0x526 JUMP JUMPDEST PUSH1 0x1 DUP2 ADD SWAP1 POP PUSH2 0x53F JUMP JUMPDEST POP POP JUMP JUMPDEST PUSH1 0x1F DUP3 GT ISZERO PUSH2 0x5A2 JUMPI PUSH2 0x573 DUP2 PUSH2 0x438 JUMP JUMPDEST PUSH2 0x57C DUP5 PUSH2 0x44D JUMP JUMPDEST DUP2 ADD PUSH1 0x20 DUP6 LT ISZERO PUSH2 0x58B JUMPI DUP2 SWAP1 POP JUMPDEST PUSH2 0x59F PUSH2 0x597 DUP6 PUSH2 0x44D JUMP JUMPDEST DUP4 ADD DUP3 PUSH2 0x53E JUMP JUMPDEST POP POP JUMPDEST POP POP POP JUMP JUMPDEST PUSH1 0x0 DUP3 DUP3 SHR SWAP1 POP SWAP3 SWAP2 POP POP JUMP JUMPDEST PUSH1 0x0 PUSH2 0x5C5 PUSH1 0x0 NOT DUP5 PUSH1 0x8 MUL PUSH2 0x5A7 JUMP JUMPDEST NOT DUP1 DUP4 AND SWAP2 POP POP SWAP3 SWAP2 POP POP JUMP JUMPDEST PUSH1 0x0 PUSH2 0x5DE DUP4 DUP4 PUSH2 0x5B4 JUMP JUMPDEST SWAP2 POP DUP3 PUSH1 0x2 MUL DUP3 OR SWAP1 POP SWAP3 SWAP2 POP POP JUMP JUMPDEST PUSH2 0x5F7 DUP3 PUSH2 0x3CD JUMP JUMPDEST PUSH8 0xFFFFFFFFFFFFFFFF DUP2 GT ISZERO PUSH2 0x610 JUMPI PUSH2 0x60F PUSH2 0x153 JUMP JUMPDEST JUMPDEST PUSH2 0x61A DUP3 SLOAD PUSH2 0x407 JUMP JUMPDEST PUSH2 0x625 DUP3 DUP3 DUP6 PUSH2 0x561 JUMP JUMPDEST PUSH1 0x0 PUSH1 0x20 SWAP1 POP PUSH1 0x1F DUP4 GT PUSH1 0x1 DUP2 EQ PUSH2 0x658 JUMPI PUSH1 0x0 DUP5 ISZERO PUSH2 0x646 JUMPI DUP3 DUP8 ADD MLOAD SWAP1 POP JUMPDEST PUSH2 0x650 DUP6 DUP3 PUSH2 0x5D2 JUMP JUMPDEST DUP7 SSTORE POP PUSH2 0x6B8 JUMP JUMPDEST PUSH1 0x1F NOT DUP5 AND PUSH2 0x666 DUP7 PUSH2 0x438 JUMP JUMPDEST PUSH1 0x0 JUMPDEST DUP3 DUP2 LT ISZERO PUSH2 0x68E JUMPI DUP5 DUP10 ADD MLOAD DUP3 SSTORE PUSH1 0x1 DUP3 ADD SWAP2 POP PUSH1 0x20 DUP6 ADD SWAP5 POP PUSH1 0x20 DUP2 ADD SWAP1 POP PUSH2 0x669 JUMP JUMPDEST DUP7 DUP4 LT ISZERO PUSH2 0x6AB JUMPI DUP5 DUP10 ADD MLOAD PUSH2 0x6A7 PUSH1 0x1F DUP10 AND DUP3 PUSH2 0x5B4 JUMP JUMPDEST DUP4 SSTORE POP JUMPDEST PUSH1 0x1 PUSH1 0x2 DUP9 MUL ADD DUP9 SSTORE POP POP POP JUMPDEST POP POP POP POP POP POP JUMP JUMPDEST PUSH2 0x86F DUP1 PUSH2 0x6CF PUSH1 0x0 CODECOPY PUSH1 0x0 RETURN INVALID PUSH1 0x80 PUSH1 0x40 MSTORE CALLVALUE DUP1 ISZERO PUSH2 0x10 JUMPI PUSH1 0x0 DUP1 REVERT JUMPDEST POP PUSH1 0x4 CALLDATASIZE LT PUSH2 0x57 JUMPI PUSH1 0x0 CALLDATALOAD PUSH1 0xE0 SHR DUP1 PUSH4 0x4A3BF377 EQ PUSH2 0x5C JUMPI DUP1 PUSH4 0x538C91B2 EQ PUSH2 0x8C JUMPI DUP1 PUSH4 0x8D4B44D9 EQ PUSH2 0xBC JUMPI DUP1 PUSH4 0xB13C744B EQ PUSH2 0xEC JUMPI DUP1 PUSH4 0xE89927EF EQ PUSH2 0x11C JUMPI JUMPDEST PUSH1 0x0 DUP1 REVERT JUMPDEST PUSH2 0x76 PUSH1 0x4 DUP1 CALLDATASIZE SUB DUP2 ADD SWAP1 PUSH2 0x71 SWAP2 SWAP1 PUSH2 0x498 JUMP JUMPDEST PUSH2 0x138 JUMP JUMPDEST PUSH1 0x40 MLOAD PUSH2 0x83 SWAP2 SWAP1 PUSH2 0x4FA JUMP JUMPDEST PUSH1 0x40 MLOAD DUP1 SWAP2 SUB SWAP1 RETURN JUMPDEST PUSH2 0xA6 PUSH1 0x4 DUP1 CALLDATASIZE SUB DUP2 ADD SWAP1 PUSH2 0xA1 SWAP2 SWAP1 PUSH2 0x498 JUMP JUMPDEST PUSH2 0x172 JUMP JUMPDEST PUSH1 0x40 MLOAD PUSH2 0xB3 SWAP2 SWAP1 PUSH2 0x530 JUMP JUMPDEST PUSH1 0x40 MLOAD DUP1 SWAP2 SUB SWAP1 RETURN JUMPDEST PUSH2 0xD6 PUSH1 0x4 DUP1 CALLDATASIZE SUB DUP2 ADD SWAP1 PUSH2 0xD1 SWAP2 SWAP1 PUSH2 0x498 JUMP JUMPDEST PUSH2 0x219 JUMP JUMPDEST PUSH1 0x40 MLOAD PUSH2 0xE3 SWAP2 SWAP1 PUSH2 0x4FA JUMP JUMPDEST PUSH1 0x40 MLOAD DUP1 SWAP2 SUB SWAP1 RETURN JUMPDEST PUSH2 0x106 PUSH1 0x4 DUP1 CALLDATASIZE SUB DUP2 ADD SWAP1 PUSH2 0x101 SWAP2 SWAP1 PUSH2 0x577 JUMP JUMPDEST PUSH2 0x247 JUMP JUMPDEST PUSH1 0x40 MLOAD PUSH2 0x113 SWAP2 SWAP1 PUSH2 0x623 JUMP JUMPDEST PUSH1 0x40 MLOAD DUP1 SWAP2 SUB SWAP1 RETURN JUMPDEST PUSH2 0x136 PUSH1 0x4 DUP1 CALLDATASIZE SUB DUP2 ADD SWAP1 PUSH2 0x131 SWAP2 SWAP1 PUSH2 0x498 JUMP JUMPDEST PUSH2 0x2F3 JUMP JUMPDEST STOP JUMPDEST PUSH1 0x0 PUSH2 0x143 DUP3 PUSH2 0x172 JUMP JUMPDEST PUSH2 0x14C JUMPI PUSH1 0x0 DUP1 REVERT JUMPDEST PUSH1 0x0 DUP3 PUSH1 0x40 MLOAD PUSH2 0x15C SWAP2 SWAP1 PUSH2 0x681 JUMP JUMPDEST SWAP1 DUP2 MSTORE PUSH1 0x20 ADD PUSH1 0x40 MLOAD DUP1 SWAP2 SUB SWAP1 KECCAK256 SLOAD SWAP1 POP SWAP2 SWAP1 POP JUMP JUMPDEST PUSH1 0x0 DUP1 PUSH1 0x0 SWAP1 POP JUMPDEST PUSH1 0x1 DUP1 SLOAD SWAP1 POP DUP2 LT ISZERO PUSH2 0x20E JUMPI DUP3 PUSH1 0x40 MLOAD PUSH1 0x20 ADD PUSH2 0x198 SWAP2 SWAP1 PUSH2 0x681 JUMP JUMPDEST PUSH1 0x40 MLOAD PUSH1 0x20 DUP2 DUP4 SUB SUB DUP2 MSTORE SWAP1 PUSH1 0x40 MSTORE DUP1 MLOAD SWAP1 PUSH1 0x20 ADD KECCAK256 PUSH1 0x1 DUP3 DUP2 SLOAD DUP2 LT PUSH2 0x1C2 JUMPI PUSH2 0x1C1 PUSH2 0x698 JUMP JUMPDEST JUMPDEST SWAP1 PUSH1 0x0 MSTORE PUSH1 0x20 PUSH1 0x0 KECCAK256 ADD PUSH1 0x40 MLOAD PUSH1 0x20 ADD PUSH2 0x1DC SWAP2 SWAP1 PUSH2 0x7BF JUMP JUMPDEST PUSH1 0x40 MLOAD PUSH1 0x20 DUP2 DUP4 SUB SUB DUP2 MSTORE SWAP1 PUSH1 0x40 MSTORE DUP1 MLOAD SWAP1 PUSH1 0x20 ADD KECCAK256 SUB PUSH2 0x201 JUMPI PUSH1 0x1 SWAP2 POP POP PUSH2 0x214 JUMP JUMPDEST DUP1 DUP1 PUSH1 0x1 ADD SWAP2 POP POP PUSH2 0x17A JUMP JUMPDEST POP PUSH1 0x0 SWAP1 POP JUMPDEST SWAP2 SWAP1 POP JUMP JUMPDEST PUSH1 0x0 DUP2 DUP1 MLOAD PUSH1 0x20 DUP2 ADD DUP3 ADD DUP1 MLOAD DUP5 DUP3 MSTORE PUSH1 0x20 DUP4 ADD PUSH1 0x20 DUP6 ADD KECCAK256 DUP2 DUP4 MSTORE DUP1 SWAP6 POP POP POP POP POP POP PUSH1 0x0 SWAP2 POP SWAP1 POP SLOAD DUP2 JUMP JUMPDEST PUSH1 0x1 DUP2 DUP2 SLOAD DUP2 LT PUSH2 0x257 JUMPI PUSH1 0x0 DUP1 REVERT JUMPDEST SWAP1 PUSH1 0x0 MSTORE PUSH1 0x20 PUSH1 0x0 KECCAK256 ADD PUSH1 0x0 SWAP2 POP SWAP1 POP DUP1 SLOAD PUSH2 0x272 SWAP1 PUSH2 0x6F6 JUMP JUMPDEST DUP1 PUSH1 0x1F ADD PUSH1 0x20 DUP1 SWAP2 DIV MUL PUSH1 0x20 ADD PUSH1 0x40 MLOAD SWAP1 DUP2 ADD PUSH1 0x40 MSTORE DUP1 SWAP3 SWAP2 SWAP1 DUP2 DUP2 MSTORE PUSH1 0x20 ADD DUP3 DUP1 SLOAD PUSH2 0x29E SWAP1 PUSH2 0x6F6 JUMP JUMPDEST DUP1 ISZERO PUSH2 0x2EB JUMPI DUP1 PUSH1 0x1F LT PUSH2 0x2C0 JUMPI PUSH2 0x100 DUP1 DUP4 SLOAD DIV MUL DUP4 MSTORE SWAP2 PUSH1 0x20 ADD SWAP2 PUSH2 0x2EB JUMP JUMPDEST DUP3 ADD SWAP2 SWAP1 PUSH1 0x0 MSTORE PUSH1 0x20 PUSH1 0x0 KECCAK256 SWAP1 JUMPDEST DUP2 SLOAD DUP2 MSTORE SWAP1 PUSH1 0x1 ADD SWAP1 PUSH1 0x20 ADD DUP1 DUP4 GT PUSH2 0x2CE JUMPI DUP3 SWAP1 SUB PUSH1 0x1F AND DUP3 ADD SWAP2 JUMPDEST POP POP POP POP POP DUP2 JUMP JUMPDEST PUSH2 0x2FC DUP2 PUSH2 0x172 JUMP JUMPDEST PUSH2 0x305 JUMPI PUSH1 0x0 DUP1 REVERT JUMPDEST PUSH1 0x1 PUSH1 0x0 DUP3 PUSH1 0x40 MLOAD PUSH2 0x317 SWAP2 SWAP1 PUSH2 0x681 JUMP JUMPDEST SWAP1 DUP2 MSTORE PUSH1 0x20 ADD PUSH1 0x40 MLOAD DUP1 SWAP2 SUB SWAP1 KECCAK256 PUSH1 0x0 DUP3 DUP3 SLOAD PUSH2 0x334 SWAP2 SWAP1 PUSH2 0x805 JUMP JUMPDEST SWAP3 POP POP DUP2 SWAP1 SSTORE POP POP JUMP JUMPDEST PUSH1 0x0 PUSH1 0x40 MLOAD SWAP1 POP SWAP1 JUMP JUMPDEST PUSH1 0x0 DUP1 REVERT JUMPDEST PUSH1 0x0 DUP1 REVERT JUMPDEST PUSH1 0x0 DUP1 REVERT JUMPDEST PUSH1 0x0 DUP1 REVERT JUMPDEST PUSH1 0x0 PUSH1 0x1F NOT PUSH1 0x1F DUP4 ADD AND SWAP1 POP SWAP2 SWAP1 POP JUMP JUMPDEST PUSH32 0x4E487B7100000000000000000000000000000000000000000000000000000000 PUSH1 0x0 MSTORE PUSH1 0x41 PUSH1 0x4 MSTORE PUSH1 0x24 PUSH1 0x0 REVERT JUMPDEST PUSH2 0x3A5 DUP3 PUSH2 0x35C JUMP JUMPDEST DUP2 ADD DUP2 DUP2 LT PUSH8 0xFFFFFFFFFFFFFFFF DUP3 GT OR ISZERO PUSH2 0x3C4 JUMPI PUSH2 0x3C3 PUSH2 0x36D JUMP JUMPDEST JUMPDEST DUP1 PUSH1 0x40 MSTORE POP POP POP JUMP JUMPDEST PUSH1 0x0 PUSH2 0x3D7 PUSH2 0x33E JUMP JUMPDEST SWAP1 POP PUSH2 0x3E3 DUP3 DUP3 PUSH2 0x39C JUMP JUMPDEST SWAP2 SWAP1 POP JUMP JUMPDEST PUSH1 0x0 PUSH8 0xFFFFFFFFFFFFFFFF DUP3 GT ISZERO PUSH2 0x403 JUMPI PUSH2 0x402 PUSH2 0x36D JUMP JUMPDEST JUMPDEST PUSH2 0x40C DUP3 PUSH2 0x35C JUMP JUMPDEST SWAP1 POP PUSH1 0x20 DUP2 ADD SWAP1 POP SWAP2 SWAP1 POP JUMP JUMPDEST DUP3 DUP2 DUP4 CALLDATACOPY PUSH1 0x0 DUP4 DUP4 ADD MSTORE POP POP POP JUMP JUMPDEST PUSH1 0x0 PUSH2 0x43B PUSH2 0x436 DUP5 PUSH2 0x3E8 JUMP JUMPDEST PUSH2 0x3CD JUMP JUMPDEST SWAP1 POP DUP3 DUP2 MSTORE PUSH1 0x20 DUP2 ADD DUP5 DUP5 DUP5 ADD GT ISZERO PUSH2 0x457 JUMPI PUSH2 0x456 PUSH2 0x357 JUMP JUMPDEST JUMPDEST PUSH2 0x462 DUP5 DUP3 DUP6 PUSH2 0x419 JUMP JUMPDEST POP SWAP4 SWAP3 POP POP POP JUMP JUMPDEST PUSH1 0x0 DUP3 PUSH1 0x1F DUP4 ADD SLT PUSH2 0x47F JUMPI PUSH2 0x47E PUSH2 0x352 JUMP JUMPDEST JUMPDEST DUP2 CALLDATALOAD PUSH2 0x48F DUP5 DUP3 PUSH1 0x20 DUP7 ADD PUSH2 0x428 JUMP JUMPDEST SWAP2 POP POP SWAP3 SWAP2 POP POP JUMP JUMPDEST PUSH1 0x0 PUSH1 0x20 DUP3 DUP5 SUB SLT ISZERO PUSH2 0x4AE JUMPI PUSH2 0x4AD PUSH2 0x348 JUMP JUMPDEST JUMPDEST PUSH1 0x0 DUP3 ADD CALLDATALOAD PUSH8 0xFFFFFFFFFFFFFFFF DUP2 GT ISZERO PUSH2 0x4CC JUMPI PUSH2 0x4CB PUSH2 0x34D JUMP JUMPDEST JUMPDEST PUSH2 0x4D8 DUP5 DUP3 DUP6 ADD PUSH2 0x46A JUMP JUMPDEST SWAP2 POP POP SWAP3 SWAP2 POP POP JUMP JUMPDEST PUSH1 0x0 DUP2 SWAP1 POP SWAP2 SWAP1 POP JUMP JUMPDEST PUSH2 0x4F4 DUP2 PUSH2 0x4E1 JUMP JUMPDEST DUP3 MSTORE POP POP JUMP JUMPDEST PUSH1 0x0 PUSH1 0x20 DUP3 ADD SWAP1 POP PUSH2 0x50F PUSH1 0x0 DUP4 ADD DUP5 PUSH2 0x4EB JUMP JUMPDEST SWAP3 SWAP2 POP POP JUMP JUMPDEST PUSH1 0x0 DUP2 ISZERO ISZERO SWAP1 POP SWAP2 SWAP1 POP JUMP JUMPDEST PUSH2 0x52A DUP2 PUSH2 0x515 JUMP JUMPDEST DUP3 MSTORE POP POP JUMP JUMPDEST PUSH1 0x0 PUSH1 0x20 DUP3 ADD SWAP1 POP PUSH2 0x545 PUSH1 0x0 DUP4 ADD DUP5 PUSH2 0x521 JUMP JUMPDEST SWAP3 SWAP2 POP POP JUMP JUMPDEST PUSH2 0x554 DUP2 PUSH2 0x4E1 JUMP JUMPDEST DUP2 EQ PUSH2 0x55F JUMPI PUSH1 0x0 DUP1 REVERT JUMPDEST POP JUMP JUMPDEST PUSH1 0x0 DUP2 CALLDATALOAD SWAP1 POP PUSH2 0x571 DUP2 PUSH2 0x54B JUMP JUMPDEST SWAP3 SWAP2 POP POP JUMP JUMPDEST PUSH1 0x0 PUSH1 0x20 DUP3 DUP5 SUB SLT ISZERO PUSH2 0x58D JUMPI PUSH2 0x58C PUSH2 0x348 JUMP JUMPDEST JUMPDEST PUSH1 0x0 PUSH2 0x59B DUP5 DUP3 DUP6 ADD PUSH2 0x562 JUMP JUMPDEST SWAP2 POP POP SWAP3 SWAP2 POP POP JUMP JUMPDEST PUSH1 0x0 DUP2 MLOAD SWAP1 POP SWAP2 SWAP1 POP JUMP JUMPDEST PUSH1 0x0 DUP3 DUP3 MSTORE PUSH1 0x20 DUP3 ADD SWAP1 POP SWAP3 SWAP2 POP POP JUMP JUMPDEST PUSH1 0x0 JUMPDEST DUP4 DUP2 LT ISZERO PUSH2 0x5DE JUMPI DUP1 DUP3 ADD MLOAD DUP2 DUP5 ADD MSTORE PUSH1 0x20 DUP2 ADD SWAP1 POP PUSH2 0x5C3 JUMP JUMPDEST PUSH1 0x0 DUP5 DUP5 ADD MSTORE POP POP POP POP JUMP JUMPDEST PUSH1 0x0 PUSH2 0x5F5 DUP3 PUSH2 0x5A4 JUMP JUMPDEST PUSH2 0x5FF DUP2 DUP6 PUSH2 0x5AF JUMP JUMPDEST SWAP4 POP PUSH2 0x60F DUP2 DUP6 PUSH1 0x20 DUP7 ADD PUSH2 0x5C0 JUMP JUMPDEST PUSH2 0x618 DUP2 PUSH2 0x35C JUMP JUMPDEST DUP5 ADD SWAP2 POP POP SWAP3 SWAP2 POP POP JUMP JUMPDEST PUSH1 0x0 PUSH1 0x20 DUP3 ADD SWAP1 POP DUP2 DUP2 SUB PUSH1 0x0 DUP4 ADD MSTORE PUSH2 0x63D DUP2 DUP5 PUSH2 0x5EA JUMP JUMPDEST SWAP1 POP SWAP3 SWAP2 POP POP JUMP JUMPDEST PUSH1 0x0 DUP2 SWAP1 POP SWAP3 SWAP2 POP POP JUMP JUMPDEST PUSH1 0x0 PUSH2 0x65B DUP3 PUSH2 0x5A4 JUMP JUMPDEST PUSH2 0x665 DUP2 DUP6 PUSH2 0x645 JUMP JUMPDEST SWAP4 POP PUSH2 0x675 DUP2 DUP6 PUSH1 0x20 DUP7 ADD PUSH2 0x5C0 JUMP JUMPDEST DUP1 DUP5 ADD SWAP2 POP POP SWAP3 SWAP2 POP POP JUMP JUMPDEST PUSH1 0x0 PUSH2 0x68D DUP3 DUP5 PUSH2 0x650 JUMP JUMPDEST SWAP2 POP DUP2 SWAP1 POP SWAP3 SWAP2 POP POP JUMP JUMPDEST PUSH32 0x4E487B7100000000000000000000000000000000000000000000000000000000 PUSH1 0x0 MSTORE PUSH1 0x32 PUSH1 0x4 MSTORE PUSH1 0x24 PUSH1 0x0 REVERT JUMPDEST PUSH32 0x4E487B7100000000000000000000000000000000000000000000000000000000 PUSH1 0x0 MSTORE PUSH1 0x22 PUSH1 0x4 MSTORE PUSH1 0x24 PUSH1 0x0 REVERT JUMPDEST PUSH1 0x0 PUSH1 0x2 DUP3 DIV SWAP1 POP PUSH1 0x1 DUP3 AND DUP1 PUSH2 0x70E JUMPI PUSH1 0x7F DUP3 AND SWAP2 POP JUMPDEST PUSH1 0x20 DUP3 LT DUP2 SUB PUSH2 0x721 JUMPI PUSH2 0x720 PUSH2 0x6C7 JUMP JUMPDEST JUMPDEST POP SWAP2 SWAP1 POP JUMP JUMPDEST PUSH1 0x0 DUP2 SWAP1 POP DUP2 PUSH1 0x0 MSTORE PUSH1 0x20 PUSH1 0x0 KECCAK256 SWAP1 POP SWAP2 SWAP1 POP JUMP JUMPDEST PUSH1 0x0 DUP2 SLOAD PUSH2 0x749 DUP2 PUSH2 0x6F6 JUMP JUMPDEST PUSH2 0x753 DUP2 DUP7 PUSH2 0x645 JUMP JUMPDEST SWAP5 POP PUSH1 0x1 DUP3 AND PUSH1 0x0 DUP2 EQ PUSH2 0x76E JUMPI PUSH1 0x1 DUP2 EQ PUSH2 0x783 JUMPI PUSH2 0x7B6 JUMP JUMPDEST PUSH1 0xFF NOT DUP4 AND DUP7 MSTORE DUP2 ISZERO ISZERO DUP3 MUL DUP7 ADD SWAP4 POP PUSH2 0x7B6 JUMP JUMPDEST PUSH2 0x78C DUP6 PUSH2 0x727 JUMP JUMPDEST PUSH1 0x0 JUMPDEST DUP4 DUP2 LT ISZERO PUSH2 0x7AE JUMPI DUP2 SLOAD DUP2 DUP10 ADD MSTORE PUSH1 0x1 DUP3 ADD SWAP2 POP PUSH1 0x20 DUP2 ADD SWAP1 POP PUSH2 0x78F JUMP JUMPDEST DUP4 DUP9 ADD SWAP6 POP POP POP JUMPDEST POP POP POP SWAP3 SWAP2 POP POP JUMP JUMPDEST PUSH1 0x0 PUSH2 0x7CB DUP3 DUP5 PUSH2 0x73C JUMP JUMPDEST SWAP2 POP DUP2 SWAP1 POP SWAP3 SWAP2 POP POP JUMP JUMPDEST PUSH32 0x4E487B7100000000000000000000000000000000000000000000000000000000 PUSH1 0x0 MSTORE PUSH1 0x11 PUSH1 0x4 MSTORE PUSH1 0x24 PUSH1 0x0 REVERT JUMPDEST PUSH1 0x0 PUSH2 0x810 DUP3 PUSH2 0x4E1 JUMP JUMPDEST SWAP2 POP PUSH2 0x81B DUP4 PUSH2 0x4E1 JUMP JUMPDEST SWAP3 POP DUP3 DUP3 ADD SWAP1 POP DUP1 DUP3 GT ISZERO PUSH2 0x833 JUMPI PUSH2 0x832 PUSH2 0x7D6 JUMP JUMPDEST JUMPDEST SWAP3 SWAP2 POP POP JUMP INVALID LOG2 PUSH5 0x6970667358 0x22 SLT KECCAK256 PUSH23 0x407CC794B175909CCC0F58DD213E5BB2366F1A110F446D OR 0xAB PUSH10 0xB2F17FCBCF64736F6C63 NUMBER STOP ADDMOD BYTE STOP CALLER "
				},
				"gasEstimates": {
					"creation": {
						"codeDepositCost": "431800",
						"executionCost": "infinite",
						"totalCost": "infinite"
					},
					"external": {
						"candidateList(uint256)": "infinite",
						"totalVotesFor(string)": "infinite",
						"validCandidate(string)": "infinite",
						"voteForCandidate(string)": "infinite",
						"votesReceived(string)": "infinite"
					}
				},
				"methodIdentifiers": {
					"candidateList(uint256)": "b13c744b",
					"totalVotesFor(string)": "4a3bf377",
					"validCandidate(string)": "538c91b2",
					"voteForCandidate(string)": "e89927ef",
					"votesReceived(string)": "8d4b44d9"
				}
			},
			"storageLayout": {
				"storage": [
					{
						"astId": 5,
						"contract": "contracts/DIOVoting.sol:DIOVoting",
						"label": "votesReceived",
						"offset": 0,
						"slot": "0",
						"type": "t_mapping(t_string_memory_ptr,t_uint256)"
					},
					{
						"astId": 8,
						"contract": "contracts/DIOVoting.sol:DIOVoting",
						"label": "candidateList",
						"offset": 0,
						"slot": "1",
						"type": "t_array(t_string_storage)dyn_storage"
					}
				],
				"types": {
					"t_array(t_string_storage)dyn_storage": {
						"base": "t_string_storage",
						"encoding": "dynamic_array",
						"label": "string[]",
						"numberOfBytes": "32"
					},
					"t_mapping(t_string_memory_ptr,t_uint256)": {
						"encoding": "mapping",
						"key": "t_string_memory_ptr",
						"label": "mapping(string => uint256)",
						"numberOfBytes": "32",
						"value": "t_uint256"
					},
					"t_string_memory_ptr": {
						"encoding": "bytes",
						"label": "string",
						"numberOfBytes": "32"
					},
					"t_string_storage": {
						"encoding": "bytes",
						"label": "string",
						"numberOfBytes": "32"
					},
					"t_uint256": {
						"encoding": "inplace",
						"label": "uint256",
						"numberOfBytes": "32"
					}
				}
			},
			"userdoc": {
				"kind": "user",
				"methods": {},
				"version": 1
			}
		}
	}
}