{
	"data": {
		"bytecode": {
			"linkReferences": {},
			"object": "60806040526040518060400160405280600c81526020017f48656c6c6f20576f726c642100000000000000000000000000000000000000008152506000908161004891906102ca565b50604051806020016040528060008152506001908161006791906102ca565b5034801561007457600080fd5b5061039c565b600081519050919050565b7f4e487b7100000000000000000000000000000000000000000000000000000000600052604160045260246000fd5b7f4e487b7100000000000000000000000000000000000000000000000000000000600052602260045260246000fd5b600060028204905060018216806100fb57607f821691505b60208210810361010e5761010d6100b4565b5b50919050565b60008190508160005260206000209050919050565b60006020601f8301049050919050565b600082821b905092915050565b6000600883026101767fffffffffffffffffffffffffffffffffffffffffffffffffffffffffffffffff82610139565b6101808683610139565b95508019841693508086168417925050509392505050565b6000819050919050565b6000819050919050565b60006101c76101c26101bd84610198565b6101a2565b610198565b9050919050565b6000819050919050565b6101e1836101ac565b6101f56101ed826101ce565b848454610146565b825550505050565b600090565b61020a6101fd565b6102158184846101d8565b505050565b5b818110156102395761022e600082610202565b60018101905061021b565b5050565b601f82111561027e5761024f81610114565b61025884610129565b81016020851015610267578190505b61027b61027385610129565b83018261021a565b50505b505050565b600082821c905092915050565b60006102a160001984600802610283565b1980831691505092915050565b60006102ba8383610290565b9150826002028217905092915050565b6102d38261007a565b67ffffffffffffffff8111156102ec576102eb610085565b5b6102f682546100e3565b61030182828561023d565b600060209050601f8311600181146103345760008415610322578287015190505b61032c85826102ae565b865550610394565b601f19841661034286610114565b60005b8281101561036a57848901518255600182019150602085019450602081019050610345565b868310156103875784890151610383601f891682610290565b8355505b6001600288020188555050505b505050505050565b610769806103ab6000396000f3fe608060405234801561001057600080fd5b506004361061004c5760003560e01c806306fdde031461005157806319ff1d211461006f578063435ffe941461008d578063c47f0027146100a9575b600080fd5b6100596100c5565b6040516100669190610297565b60405180910390f35b610077610153565b6040516100849190610297565b60405180910390f35b6100a760048036038101906100a29190610402565b6101e1565b005b6100c360048036038101906100be9190610402565b6101f4565b005b600180546100d29061047a565b80601f01602080910402602001604051908101604052809291908181526020018280546100fe9061047a565b801561014b5780601f106101205761010080835404028352916020019161014b565b820191906000526020600020905b81548152906001019060200180831161012e57829003601f168201915b505050505081565b600080546101609061047a565b80601f016020809104026020016040519081016040528092919081815260200182805461018c9061047a565b80156101d95780601f106101ae576101008083540402835291602001916101d9565b820191906000526020600020905b8154815290600101906020018083116101bc57829003601f168201915b505050505081565b80600090816101f09190610661565b5050565b80600190816102039190610661565b5050565b600081519050919050565b600082825260208201905092915050565b60005b83811015610241578082015181840152602081019050610226565b60008484015250505050565b6000601f19601f8301169050919050565b600061026982610207565b6102738185610212565b9350610283818560208601610223565b61028c8161024d565b840191505092915050565b600060208201905081810360008301526102b1818461025e565b905092915050565b6000604051905090565b600080fd5b600080fd5b600080fd5b600080fd5b7f4e487b7100000000000000000000000000000000000000000000000000000000600052604160045260246000fd5b61030f8261024d565b810181811067ffffffffffffffff8211171561032e5761032d6102d7565b5b80604052505050565b60006103416102b9565b905061034d8282610306565b919050565b600067ffffffffffffffff82111561036d5761036c6102d7565b5b6103768261024d565b9050602081019050919050565b82818337600083830152505050565b60006103a56103a084610352565b610337565b9050828152602081018484840111156103c1576103c06102d2565b5b6103cc848285610383565b509392505050565b600082601f8301126103e9576103e86102cd565b5b81356103f9848260208601610392565b91505092915050565b600060208284031215610418576104176102c3565b5b600082013567ffffffffffffffff811115610436576104356102c8565b5b610442848285016103d4565b91505092915050565b7f4e487b7100000000000000000000000000000000000000000000000000000000600052602260045260246000fd5b6000600282049050600182168061049257607f821691505b6020821081036104a5576104a461044b565b5b50919050565b60008190508160005260206000209050919050565b60006020601f8301049050919050565b600082821b905092915050565b60006008830261050d7fffffffffffffffffffffffffffffffffffffffffffffffffffffffffffffffff826104d0565b61051786836104d0565b95508019841693508086168417925050509392505050565b6000819050919050565b6000819050919050565b600061055e6105596105548461052f565b610539565b61052f565b9050919050565b6000819050919050565b61057883610543565b61058c61058482610565565b8484546104dd565b825550505050565b600090565b6105a1610594565b6105ac81848461056f565b505050565b5b818110156105d0576105c5600082610599565b6001810190506105b2565b5050565b601f821115610615576105e6816104ab565b6105ef846104c0565b810160208510156105fe578190505b61061261060a856104c0565b8301826105b1565b50505b505050565b600082821c905092915050565b60006106386000198460080261061a565b1980831691505092915050565b60006106518383610627565b9150826002028217905092915050565b61066a82610207565b67ffffffffffffffff811115610683576106826102d7565b5b61068d825461047a565b6106988282856105d4565b600060209050601f8311600181146106cb57600084156106b9578287015190505b6106c38582610645565b86555061072b565b601f1984166106d9866104ab565b60005b82811015610701578489015182556001820191506020850194506020810190506106dc565b8683101561071e578489015161071a601f891682610627565b8355505b6001600288020188555050505b50505050505056fea2646970667358221220186f283cdc329dc45477d66f30c2735c7ab51c95c0c4b4828856fbdeb178f32e64736f6c634300081a0033",
			"opcodes": "PUSH1 0x80 PUSH1 0x40 MSTORE PUSH1 0x40 MLOAD DUP1 PUSH1 0x40 ADD PUSH1 0x40 MSTORE DUP1 PUSH1 0xC DUP2 MSTORE PUSH1 0x20 ADD PUSH32 0x48656C6C6F20576F726C64210000000000000000000000000000000000000000 DUP2 MSTORE POP PUSH1 0x0 SWAP1 DUP2 PUSH2 0x48 SWAP2 SWAP1 PUSH2 0x2CA JUMP JUMPDEST POP PUSH1 0x40 MLOAD DUP1 PUSH1 0x20 ADD PUSH1 0x40 MSTORE DUP1 PUSH1 0x0 DUP2 MSTORE POP PUSH1 0x1 SWAP1 DUP2 PUSH2 0x67 SWAP2 SWAP1 PUSH2 0x2CA JUMP JUMPDEST POP CALLVALUE DUP1 ISZERO PUSH2 0x74 JUMPI PUSH1 0x0 DUP1 REVERT JUMPDEST POP PUSH2 0x39C JUMP JUMPDEST PUSH1 0x0 DUP2 MLOAD SWAP1 POP SWAP2 SWAP1 POP JUMP JUMPDEST PUSH32 0x4E487B7100000000000000000000000000000000000000000000000000000000 PUSH1 0x0 MSTORE PUSH1 0x41 PUSH1 0x4 MSTORE PUSH1 0x24 PUSH1 0x0 REVERT JUMPDEST PUSH32 0x4E487B7100000000000000000000000000000000000000000000000000000000 PUSH1 0x0 MSTORE PUSH1 0x22 PUSH1 0x4 MSTORE PUSH1 0x24 PUSH1 0x0 REVERT JUMPDEST PUSH1 0x0 PUSH1 0x2 DUP3 DIV SWAP1 POP PUSH1 0x1 DUP3 AND DUP1 PUSH2 0xFB JUMPI PUSH1 0x7F DUP3 AND SWAP2 POP JUMPDEST PUSH1 0x20 DUP3 LT DUP2 SUB PUSH2 0x10E JUMPI PUSH2 0x10D PUSH2 0xB4 JUMP JUMPDEST JUMPDEST POP SWAP2 SWAP1 POP JUMP JUMPDEST PUSH1 0x0 DUP2 SWAP1 POP DUP2 PUSH1 0x0 MSTORE PUSH1 0x20 PUSH1 0x0 KECCAK256 SWAP1 POP SWAP2 SWAP1 POP JUMP JUMPDEST PUSH1 0x0 PUSH1 0x20 PUSH1 0x1F DUP4 ADD DIV SWAP1 POP SWAP2 SWAP1 POP JUMP JUMPDEST PUSH1 0x0 DUP3 DUP3 SHL SWAP1 POP SWAP3 SWAP2 POP POP JUMP JUMPDEST PUSH1 0x0 PUSH1 0x8 DUP4 MUL PUSH2 0x176 PUSH32 0xFFFFFFFFFFFFFFFFFFFFFFFFFFFFFFFFFFFFFFFFFFFFFFFFFFFFFFFFFFFFFFFF DUP3 PUSH2 0x139 JUMP JUMPDEST PUSH2 0x180 DUP7 DUP4 PUSH2 0x139 JUMP JUMPDEST SWAP6 POP DUP1 NOT DUP5 AND SWAP4 POP DUP1 DUP7 AND DUP5 OR SWAP3 POP POP POP SWAP4 SWAP3 POP POP POP JUMP JUMPDEST PUSH1 0x0 DUP2 SWAP1 POP SWAP2 SWAP1 POP JUMP JUMPDEST PUSH1 0x0 DUP2 SWAP1 POP SWAP2 SWAP1 POP JUMP JUMPDEST PUSH1 0x0 PUSH2 0x1C7 PUSH2 0x1C2 PUSH2 0x1BD DUP5 PUSH2 0x198 JUMP JUMPDEST PUSH2 0x1A2 JUMP JUMPDEST PUSH2 0x198 JUMP JUMPDEST SWAP1 POP SWAP2 SWAP1 POP JUMP JUMPDEST PUSH1 0x0 DUP2 SWAP1 POP SWAP2 SWAP1 POP JUMP JUMPDEST PUSH2 0x1E1 DUP4 PUSH2 0x1AC JUMP JUMPDEST PUSH2 0x1F5 PUSH2 0x1ED DUP3 PUSH2 0x1CE JUMP JUMPDEST DUP5 DUP5 SLOAD PUSH2 0x146 JUMP JUMPDEST DUP3 SSTORE POP POP POP POP JUMP JUMPDEST PUSH1 0x0 SWAP1 JUMP JUMPDEST PUSH2 0x20A PUSH2 0x1FD JUMP JUMPDEST PUSH2 0x215 DUP2 DUP5 DUP5 PUSH2 0x1D8 JUMP JUMPDEST POP POP POP JUMP JUMPDEST JUMPDEST DUP2 DUP2 LT ISZERO PUSH2 0x239 JUMPI PUSH2 0x22E PUSH1 0x0 DUP3 PUSH2 0x202 JUMP JUMPDEST PUSH1 0x1 DUP2 ADD SWAP1 POP PUSH2 0x21B JUMP JUMPDEST POP POP JUMP JUMPDEST PUSH1 0x1F DUP3 GT ISZERO PUSH2 0x27E JUMPI PUSH2 0x24F DUP2 PUSH2 0x114 JUMP JUMPDEST PUSH2 0x258 DUP5 PUSH2 0x129 JUMP JUMPDEST DUP2 ADD PUSH1 0x20 DUP6 LT ISZERO PUSH2 0x267 JUMPI DUP2 SWAP1 POP JUMPDEST PUSH2 0x27B PUSH2 0x273 DUP6 PUSH2 0x129 JUMP JUMPDEST DUP4 ADD DUP3 PUSH2 0x21A JUMP JUMPDEST POP POP JUMPDEST POP POP POP JUMP JUMPDEST PUSH1 0x0 DUP3 DUP3 SHR SWAP1 POP SWAP3 SWAP2 POP POP JUMP JUMPDEST PUSH1 0x0 PUSH2 0x2A1 PUSH1 0x0 NOT DUP5 PUSH1 0x8 MUL PUSH2 0x283 JUMP JUMPDEST NOT DUP1 DUP4 AND SWAP2 POP POP SWAP3 SWAP2 POP POP JUMP JUMPDEST PUSH1 0x0 PUSH2 0x2BA DUP4 DUP4 PUSH2 0x290 JUMP JUMPDEST SWAP2 POP DUP3 PUSH1 0x2 MUL DUP3 OR SWAP1 POP SWAP3 SWAP2 POP POP JUMP JUMPDEST PUSH2 0x2D3 DUP3 PUSH2 0x7A JUMP JUMPDEST PUSH8 0xFFFFFFFFFFFFFFFF DUP2 GT ISZERO PUSH2 0x2EC JUMPI PUSH2 0x2EB PUSH2 0x85 JUMP JUMPDEST JUMPDEST PUSH2 0x2F6 DUP3 SLOAD PUSH2 0xE3 JUMP JUMPDEST PUSH2 0x301 DUP3 DUP3 DUP6 PUSH2 0x23D JUMP JUMPDEST PUSH1 0x0 PUSH1 0x20 SWAP1 POP PUSH1 0x1F DUP4 GT PUSH1 0x1 DUP2 EQ PUSH2 0x334 JUMPI PUSH1 0x0 DUP5 ISZERO PUSH2 0x322 JUMPI DUP3 DUP8 ADD MLOAD SWAP1 POP JUMPDEST PUSH2 0x32C DUP6 DUP3 PUSH2 0x2AE JUMP JUMPDEST DUP7 SSTORE POP PUSH2 0x394 JUMP JUMPDEST PUSH1 0x1F NOT DUP5 AND PUSH2 0x342 DUP7 PUSH2 0x114 JUMP JUMPDEST PUSH1 0x0 JUMPDEST DUP3 DUP2 LT ISZERO PUSH2 0x36A JUMPI DUP5 DUP10 ADD MLOAD DUP3 SSTORE PUSH1 0x1 DUP3 ADD SWAP2 POP PUSH1 0x20 DUP6 ADD SWAP5 POP PUSH1 0x20 DUP2 ADD SWAP1 POP PUSH2 0x345 JUMP JUMPDEST DUP7 DUP4 LT ISZERO PUSH2 0x387 JUMPI DUP5 DUP10 ADD MLOAD PUSH2 0x383 PUSH1 0x1F DUP10 AND DUP3 PUSH2 0x290 JUMP JUMPDEST DUP4 SSTORE POP JUMPDEST PUSH1 0x1 PUSH1 0x2 DUP9 MUL ADD DUP9 SSTORE POP POP POP JUMPDEST POP POP POP POP POP POP JUMP JUMPDEST PUSH2 0x769 DUP1 PUSH2 0x3AB PUSH1 0x0 CODECOPY PUSH1 0x0 RETURN INVALID PUSH1 0x80 PUSH1 0x40 MSTORE CALLVALUE DUP1 ISZERO PUSH2 0x10 JUMPI PUSH1 0x0 DUP1 REVERT JUMPDEST POP PUSH1 0x4 CALLDATASIZE LT PUSH2 0x4C JUMPI PUSH1 0x0 CALLDATALOAD PUSH1 0xE0 SHR DUP1 PUSH4 0x6FDDE03 EQ PUSH2 0x51 JUMPI DUP1 PUSH4 0x19FF1D21 EQ PUSH2 0x6F JUMPI DUP1 PUSH4 0x435FFE94 EQ PUSH2 0x8D JUMPI DUP1 PUSH4 0xC47F0027 EQ PUSH2 0xA9 JUMPI JUMPDEST PUSH1 0x0 DUP1 REVERT JUMPDEST PUSH2 0x59 PUSH2 0xC5 JUMP JUMPDEST PUSH1 0x40 MLOAD PUSH2 0x66 SWAP2 SWAP1 PUSH2 0x297 JUMP JUMPDEST PUSH1 0x40 MLOAD DUP1 SWAP2 SUB SWAP1 RETURN JUMPDEST PUSH2 0x77 PUSH2 0x153 JUMP JUMPDEST PUSH1 0x40 MLOAD PUSH2 0x84 SWAP2 SWAP1 PUSH2 0x297 JUMP JUMPDEST PUSH1 0x40 MLOAD DUP1 SWAP2 SUB SWAP1 RETURN JUMPDEST PUSH2 0xA7 PUSH1 0x4 DUP1 CALLDATASIZE SUB DUP2 ADD SWAP1 PUSH2 0xA2 SWAP2 SWAP1 PUSH2 0x402 JUMP JUMPDEST PUSH2 0x1E1 JUMP JUMPDEST STOP JUMPDEST PUSH2 0xC3 PUSH1 0x4 DUP1 CALLDATASIZE SUB DUP2 ADD SWAP1 PUSH2 0xBE SWAP2 SWAP1 PUSH2 0x402 JUMP JUMPDEST PUSH2 0x1F4 JUMP JUMPDEST STOP JUMPDEST PUSH1 0x1 DUP1 SLOAD PUSH2 0xD2 SWAP1 PUSH2 0x47A JUMP JUMPDEST DUP1 PUSH1 0x1F ADD PUSH1 0x20 DUP1 SWAP2 DIV MUL PUSH1 0x20 ADD PUSH1 0x40 MLOAD SWAP1 DUP2 ADD PUSH1 0x40 MSTORE DUP1 SWAP3 SWAP2 SWAP1 DUP2 DUP2 MSTORE PUSH1 0x20 ADD DUP3 DUP1 SLOAD PUSH2 0xFE SWAP1 PUSH2 0x47A JUMP JUMPDEST DUP1 ISZERO PUSH2 0x14B JUMPI DUP1 PUSH1 0x1F LT PUSH2 0x120 JUMPI PUSH2 0x100 DUP1 DUP4 SLOAD DIV MUL DUP4 MSTORE SWAP2 PUSH1 0x20 ADD SWAP2 PUSH2 0x14B JUMP JUMPDEST DUP3 ADD SWAP2 SWAP1 PUSH1 0x0 MSTORE PUSH1 0x20 PUSH1 0x0 KECCAK256 SWAP1 JUMPDEST DUP2 SLOAD DUP2 MSTORE SWAP1 PUSH1 0x1 ADD SWAP1 PUSH1 0x20 ADD DUP1 DUP4 GT PUSH2 0x12E JUMPI DUP3 SWAP1 SUB PUSH1 0x1F AND DUP3 ADD SWAP2 JUMPDEST POP POP POP POP POP DUP2 JUMP JUMPDEST PUSH1 0x0 DUP1 SLOAD PUSH2 0x160 SWAP1 PUSH2 0x47A JUMP JUMPDEST DUP1 PUSH1 0x1F ADD PUSH1 0x20 DUP1 SWAP2 DIV MUL PUSH1 0x20 ADD PUSH1 0x40 MLOAD SWAP1 DUP2 ADD PUSH1 0x40 MSTORE DUP1 SWAP3 SWAP2 SWAP1 DUP2 DUP2 MSTORE PUSH1 0x20 ADD DUP3 DUP1 SLOAD PUSH2 0x18C SWAP1 PUSH2 0x47A JUMP JUMPDEST DUP1 ISZERO PUSH2 0x1D9 JUMPI DUP1 PUSH1 0x1F LT PUSH2 0x1AE JUMPI PUSH2 0x100 DUP1 DUP4 SLOAD DIV MUL DUP4 MSTORE SWAP2 PUSH1 0x20 ADD SWAP2 PUSH2 0x1D9 JUMP JUMPDEST DUP3 ADD SWAP2 SWAP1 PUSH1 0x0 MSTORE PUSH1 0x20 PUSH1 0x0 KECCAK256 SWAP1 JUMPDEST DUP2 SLOAD DUP2 MSTORE SWAP1 PUSH1 0x1 ADD SWAP1 PUSH1 0x20 ADD DUP1 DUP4 GT PUSH2 0x1BC JUMPI DUP3 SWAP1 SUB PUSH1 0x1F AND DUP3 ADD SWAP2 JUMPDEST POP POP POP POP POP DUP2 JUMP JUMPDEST DUP1 PUSH1 0x0 SWAP1 DUP2 PUSH2 0x1F0 SWAP2 SWAP1 PUSH2 0x661 JUMP JUMPDEST POP POP JUMP JUMPDEST DUP1 PUSH1 0x1 SWAP1 DUP2 PUSH2 0x203 SWAP2 SWAP1 PUSH2 0x661 JUMP JUMPDEST POP POP JUMP JUMPDEST PUSH1 0x0 DUP2 MLOAD SWAP1 POP SWAP2 SWAP1 POP JUMP JUMPDEST PUSH1 0x0 DUP3 DUP3 MSTORE PUSH1 0x20 DUP3 ADD SWAP1 POP SWAP3 SWAP2 POP POP JUMP JUMPDEST PUSH1 0x0 JUMPDEST DUP4 DUP2 LT ISZERO PUSH2 0x241 JUMPI DUP1 DUP3 ADD MLOAD DUP2 DUP5 ADD MSTORE PUSH1 0x20 DUP2 ADD SWAP1 POP PUSH2 0x226 JUMP JUMPDEST PUSH1 0x0 DUP5 DUP5 ADD MSTORE POP POP POP POP JUMP JUMPDEST PUSH1 0x0 PUSH1 0x1F NOT PUSH1 0x1F DUP4 ADD AND SWAP1 POP SWAP2 SWAP1 POP JUMP JUMPDEST PUSH1 0x0 PUSH2 0x269 DUP3 PUSH2 0x207 JUMP JUMPDEST PUSH2 0x273 DUP2 DUP6 PUSH2 0x212 JUMP JUMPDEST SWAP4 POP PUSH2 0x283 DUP2 DUP6 PUSH1 0x20 DUP7 ADD PUSH2 0x223 JUMP JUMPDEST PUSH2 0x28C DUP2 PUSH2 0x24D JUMP JUMPDEST DUP5 ADD SWAP2 POP POP SWAP3 SWAP2 POP POP JUMP JUMPDEST PUSH1 0x0 PUSH1 0x20 DUP3 ADD SWAP1 POP DUP2 DUP2 SUB PUSH1 0x0 DUP4 ADD MSTORE PUSH2 0x2B1 DUP2 DUP5 PUSH2 0x25E JUMP JUMPDEST SWAP1 POP SWAP3 SWAP2 POP POP JUMP JUMPDEST PUSH1 0x0 PUSH1 0x40 MLOAD SWAP1 POP SWAP1 JUMP JUMPDEST PUSH1 0x0 DUP1 REVERT JUMPDEST PUSH1 0x0 DUP1 REVERT JUMPDEST PUSH1 0x0 DUP1 REVERT JUMPDEST PUSH1 0x0 DUP1 REVERT JUMPDEST PUSH32 0x4E487B7100000000000000000000000000000000000000000000000000000000 PUSH1 0x0 MSTORE PUSH1 0x41 PUSH1 0x4 MSTORE PUSH1 0x24 PUSH1 0x0 REVERT JUMPDEST PUSH2 0x30F DUP3 PUSH2 0x24D JUMP JUMPDEST DUP2 ADD DUP2 DUP2 LT PUSH8 0xFFFFFFFFFFFFFFFF DUP3 GT OR ISZERO PUSH2 0x32E JUMPI PUSH2 0x32D PUSH2 0x2D7 JUMP JUMPDEST JUMPDEST DUP1 PUSH1 0x40 MSTORE POP POP POP JUMP JUMPDEST PUSH1 0x0 PUSH2 0x341 PUSH2 0x2B9 JUMP JUMPDEST SWAP1 POP PUSH2 0x34D DUP3 DUP3 PUSH2 0x306 JUMP JUMPDEST SWAP2 SWAP1 POP JUMP JUMPDEST PUSH1 0x0 PUSH8 0xFFFFFFFFFFFFFFFF DUP3 GT ISZERO PUSH2 0x36D JUMPI PUSH2 0x36C PUSH2 0x2D7 JUMP JUMPDEST JUMPDEST PUSH2 0x376 DUP3 PUSH2 0x24D JUMP JUMPDEST SWAP1 POP PUSH1 0x20 DUP2 ADD SWAP1 POP SWAP2 SWAP1 POP JUMP JUMPDEST DUP3 DUP2 DUP4 CALLDATACOPY PUSH1 0x0 DUP4 DUP4 ADD MSTORE POP POP POP JUMP JUMPDEST PUSH1 0x0 PUSH2 0x3A5 PUSH2 0x3A0 DUP5 PUSH2 0x352 JUMP JUMPDEST PUSH2 0x337 JUMP JUMPDEST SWAP1 POP DUP3 DUP2 MSTORE PUSH1 0x20 DUP2 ADD DUP5 DUP5 DUP5 ADD GT ISZERO PUSH2 0x3C1 JUMPI PUSH2 0x3C0 PUSH2 0x2D2 JUMP JUMPDEST JUMPDEST PUSH2 0x3CC DUP5 DUP3 DUP6 PUSH2 0x383 JUMP JUMPDEST POP SWAP4 SWAP3 POP POP POP JUMP JUMPDEST PUSH1 0x0 DUP3 PUSH1 0x1F DUP4 ADD SLT PUSH2 0x3E9 JUMPI PUSH2 0x3E8 PUSH2 0x2CD JUMP JUMPDEST JUMPDEST DUP2 CALLDATALOAD PUSH2 0x3F9 DUP5 DUP3 PUSH1 0x20 DUP7 ADD PUSH2 0x392 JUMP JUMPDEST SWAP2 POP POP SWAP3 SWAP2 POP POP JUMP JUMPDEST PUSH1 0x0 PUSH1 0x20 DUP3 DUP5 SUB SLT ISZERO PUSH2 0x418 JUMPI PUSH2 0x417 PUSH2 0x2C3 JUMP JUMPDEST JUMPDEST PUSH1 0x0 DUP3 ADD CALLDATALOAD PUSH8 0xFFFFFFFFFFFFFFFF DUP2 GT ISZERO PUSH2 0x436 JUMPI PUSH2 0x435 PUSH2 0x2C8 JUMP JUMPDEST JUMPDEST PUSH2 0x442 DUP5 DUP3 DUP6 ADD PUSH2 0x3D4 JUMP JUMPDEST SWAP2 POP POP SWAP3 SWAP2 POP POP JUMP JUMPDEST PUSH32 0x4E487B7100000000000000000000000000000000000000000000000000000000 PUSH1 0x0 MSTORE PUSH1 0x22 PUSH1 0x4 MSTORE PUSH1 0x24 PUSH1 0x0 REVERT JUMPDEST PUSH1 0x0 PUSH1 0x2 DUP3 DIV SWAP1 POP PUSH1 0x1 DUP3 AND DUP1 PUSH2 0x492 JUMPI PUSH1 0x7F DUP3 AND SWAP2 POP JUMPDEST PUSH1 0x20 DUP3 LT DUP2 SUB PUSH2 0x4A5 JUMPI PUSH2 0x4A4 PUSH2 0x44B JUMP JUMPDEST JUMPDEST POP SWAP2 SWAP1 POP JUMP JUMPDEST PUSH1 0x0 DUP2 SWAP1 POP DUP2 PUSH1 0x0 MSTORE PUSH1 0x20 PUSH1 0x0 KECCAK256 SWAP1 POP SWAP2 SWAP1 POP JUMP JUMPDEST PUSH1 0x0 PUSH1 0x20 PUSH1 0x1F DUP4 ADD DIV SWAP1 POP SWAP2 SWAP1 POP JUMP JUMPDEST PUSH1 0x0 DUP3 DUP3 SHL SWAP1 POP SWAP3 SWAP2 POP POP JUMP JUMPDEST PUSH1 0x0 PUSH1 0x8 DUP4 MUL PUSH2 0x50D PUSH32 0xFFFFFFFFFFFFFFFFFFFFFFFFFFFFFFFFFFFFFFFFFFFFFFFFFFFFFFFFFFFFFFFF DUP3 PUSH2 0x4D0 JUMP JUMPDEST PUSH2 0x517 DUP7 DUP4 PUSH2 0x4D0 JUMP JUMPDEST SWAP6 POP DUP1 NOT DUP5 AND SWAP4 POP DUP1 DUP7 AND DUP5 OR SWAP3 POP POP POP SWAP4 SWAP3 POP POP POP JUMP JUMPDEST PUSH1 0x0 DUP2 SWAP1 POP SWAP2 SWAP1 POP JUMP JUMPDEST PUSH1 0x0 DUP2 SWAP1 POP SWAP2 SWAP1 POP JUMP JUMPDEST PUSH1 0x0 PUSH2 0x55E PUSH2 0x559 PUSH2 0x554 DUP5 PUSH2 0x52F JUMP JUMPDEST PUSH2 0x539 JUMP JUMPDEST PUSH2 0x52F JUMP JUMPDEST SWAP1 POP SWAP2 SWAP1 POP JUMP JUMPDEST PUSH1 0x0 DUP2 SWAP1 POP SWAP2 SWAP1 POP JUMP JUMPDEST PUSH2 0x578 DUP4 PUSH2 0x543 JUMP JUMPDEST PUSH2 0x58C PUSH2 0x584 DUP3 PUSH2 0x565 JUMP JUMPDEST DUP5 DUP5 SLOAD PUSH2 0x4DD JUMP JUMPDEST DUP3 SSTORE POP POP POP POP JUMP JUMPDEST PUSH1 0x0 SWAP1 JUMP JUMPDEST PUSH2 0x5A1 PUSH2 0x594 JUMP JUMPDEST PUSH2 0x5AC DUP2 DUP5 DUP5 PUSH2 0x56F JUMP JUMPDEST POP POP POP JUMP JUMPDEST JUMPDEST DUP2 DUP2 LT ISZERO PUSH2 0x5D0 JUMPI PUSH2 0x5C5 PUSH1 0x0 DUP3 PUSH2 0x599 JUMP JUMPDEST PUSH1 0x1 DUP2 ADD SWAP1 POP PUSH2 0x5B2 JUMP JUMPDEST POP POP JUMP JUMPDEST PUSH1 0x1F DUP3 GT ISZERO PUSH2 0x615 JUMPI PUSH2 0x5E6 DUP2 PUSH2 0x4AB JUMP JUMPDEST PUSH2 0x5EF DUP5 PUSH2 0x4C0 JUMP JUMPDEST DUP2 ADD PUSH1 0x20 DUP6 LT ISZERO PUSH2 0x5FE JUMPI DUP2 SWAP1 POP JUMPDEST PUSH2 0x612 PUSH2 0x60A DUP6 PUSH2 0x4C0 JUMP JUMPDEST DUP4 ADD DUP3 PUSH2 0x5B1 JUMP JUMPDEST POP POP JUMPDEST POP POP POP JUMP JUMPDEST PUSH1 0x0 DUP3 DUP3 SHR SWAP1 POP SWAP3 SWAP2 POP POP JUMP JUMPDEST PUSH1 0x0 PUSH2 0x638 PUSH1 0x0 NOT DUP5 PUSH1 0x8 MUL PUSH2 0x61A JUMP JUMPDEST NOT DUP1 DUP4 AND SWAP2 POP POP SWAP3 SWAP2 POP POP JUMP JUMPDEST PUSH1 0x0 PUSH2 0x651 DUP4 DUP4 PUSH2 0x627 JUMP JUMPDEST SWAP2 POP DUP3 PUSH1 0x2 MUL DUP3 OR SWAP1 POP SWAP3 SWAP2 POP POP JUMP JUMPDEST PUSH2 0x66A DUP3 PUSH2 0x207 JUMP JUMPDEST PUSH8 0xFFFFFFFFFFFFFFFF DUP2 GT ISZERO PUSH2 0x683 JUMPI PUSH2 0x682 PUSH2 0x2D7 JUMP JUMPDEST JUMPDEST PUSH2 0x68D DUP3 SLOAD PUSH2 0x47A JUMP JUMPDEST PUSH2 0x698 DUP3 DUP3 DUP6 PUSH2 0x5D4 JUMP JUMPDEST PUSH1 0x0 PUSH1 0x20 SWAP1 POP PUSH1 0x1F DUP4 GT PUSH1 0x1 DUP2 EQ PUSH2 0x6CB JUMPI PUSH1 0x0 DUP5 ISZERO PUSH2 0x6B9 JUMPI DUP3 DUP8 ADD MLOAD SWAP1 POP JUMPDEST PUSH2 0x6C3 DUP6 DUP3 PUSH2 0x645 JUMP JUMPDEST DUP7 SSTORE POP PUSH2 0x72B JUMP JUMPDEST PUSH1 0x1F NOT DUP5 AND PUSH2 0x6D9 DUP7 PUSH2 0x4AB JUMP JUMPDEST PUSH1 0x0 JUMPDEST DUP3 DUP2 LT ISZERO PUSH2 0x701 JUMPI DUP5 DUP10 ADD MLOAD DUP3 SSTORE PUSH1 0x1 DUP3 ADD SWAP2 POP PUSH1 0x20 DUP6 ADD SWAP5 POP PUSH1 0x20 DUP2 ADD SWAP1 POP PUSH2 0x6DC JUMP JUMPDEST DUP7 DUP4 LT ISZERO PUSH2 0x71E JUMPI DUP5 DUP10 ADD MLOAD PUSH2 0x71A PUSH1 0x1F DUP10 AND DUP3 PUSH2 0x627 JUMP JUMPDEST DUP4 SSTORE POP JUMPDEST PUSH1 0x1 PUSH1 0x2 DUP9 MUL ADD DUP9 SSTORE POP POP POP JUMPDEST POP POP POP POP POP POP JUMP INVALID LOG2 PUSH5 0x6970667358 0x22 SLT KECCAK256 XOR PUSH16 0x283CDC329DC45477D66F30C2735C7AB5 SHR SWAP6 0xC0 0xC4 0xB4 DUP3 DUP9 JUMP 0xFB 0xDE 0xB1 PUSH25 0xF32E64736F6C634300081A0033000000000000000000000000 "
		},
		"gasEstimates": {
			"creation": {
				"codeDepositCost": "379400",
				"executionCost": "infinite",
				"totalCost": "infinite"
			},
			"external": {
				"hello()": "infinite",
				"name()": "infinite",
				"setHello(string)": "infinite",
				"setName(string)": "infinite"
			}
		},
		"methodIdentifiers": {
			"hello()": "19ff1d21",
			"name()": "06fdde03",
			"setHello(string)": "435ffe94",
			"setName(string)": "c47f0027"
		}
	},
	"abi": [
		{
			"inputs": [],
			"name": "hello",
			"outputs": [
				{
					"internalType": "string",
					"name": "",
					"type": "string"
				}
			],
			"stateMutability": "view",
			"type": "function"
		},
		{
			"inputs": [],
			"name": "name",
			"outputs": [
				{
					"internalType": "string",
					"name": "",
					"type": "string"
				}
			],
			"stateMutability": "view",
			"type": "function"
		},
		{
			"inputs": [
				{
					"internalType": "string",
					"name": "_hello",
					"type": "string"
				}
			],
			"name": "setHello",
			"outputs": [],
			"stateMutability": "nonpayable",
			"type": "function"
		},
		{
			"inputs": [
				{
					"internalType": "string",
					"name": "_name",
					"type": "string"
				}
			],
			"name": "setName",
			"outputs": [],
			"stateMutability": "nonpayable",
			"type": "function"
		}
	]
}